:020000040800F2
:10800000000002209D1E0108B5BD0008BBBD000890
:10801000C1BD0008C7BD0008CDBD000800000000BC
:10802000000000000000000000000000D3BD0008B8
:10803000E1BD000800000000EFBD0008FDBD000824
:10804000ED1E0108ED1E0108ED1E0108ED1E0108E0
:1080500000000000ED1E0108ED1E0108ED1E0108E4
:10806000ED1E0108ED1E0108ED1E0108ED1E0108C0
:10807000ED1E0108ED1E0108ED1E0108ED1E0108B0
:10808000ED1E0108ED1E0108ED1E010801C00008EB
:1080900015C00008B1C0000839C10008ED1E010874
:1080A000ED1E0108ED1E0108ED1E010819BE0008B5
:1080B000ED1E0108ED1E01082DBE0008ED1E010891
:1080C000ED1E0108ED1E0108ED1E0108ED1E010860
:1080D000ED1E0108ED1E0108ED1E01080DC300088C
:1080E000B1C20008ED1E0108ED1E0108ED1E0108D9
:1080F000ED1E0108ED1E0108ED1E0108ED1E010830
:10810000ED1E0108ED1E01084DBE0008ED1E010820
:10811000ED1E0108ED1E01086DBE0008ED1E0108F0
:10812000ED1E0108ED1E0108ED1E0108ED1E0108FF
:10813000ED1E0108ED1E0108ED1E01084DC10008ED
:1081400061C1000809C200089DC20008ED1E0108B7
:10815000ED1E0108ED1E0108ED1E0108ED1E0108CF
:10816000ED1E0108ED1E0108ED1E0108ED1E0108BF
:10817000ED1E0108ED1E0108ED1E0108ED1E0108AF
:10818000ED1E0108ED1E01080000000000000000C7
:1081900000000000000000000000000000000000DF
:0881A000ED1E0108ED1E0108AF
:1081A80010B5054C237833B9044B13B10448AFF329
:1081B80000800123237010BD100200200000000081
:1081C800881F010808B5034B1BB103490348AFF3E7
:1081D800008008BD0000000014020020881F01086C
:1081E80053B94AB9002908BF00281CBF4FF0FF3116
:1081F8004FF0FF3000F06EB9ADF1080C6DE904CE18
:1082080000F006F8DDF804E0DDE9022304B0704769
:108218002DE9F047089D04468C46002B40F08380EA
:108228008A42174647D9B2FA82F242B1C2F1200017
:1082380024FA00F09140974040EA010C94404FEA3C
:108248001748230CBCFBF8F61FFA87FE08FB16C17B
:1082580043EA014306FB0EF1994209D9FB1806F1DE
:10826800FF3080F01981994240F21681023E3B446A
:108278005B1AA4B2B3FBF8F008FB103344EA0344DA
:1082880000FB0EFEA64509D93C1900F1FF3380F02A
:108298000581A64540F2028102383C4440EA064086
:1082A800A4EB0E0400261DB1D4400023C5E9004309
:1082B8003146BDE8F08702B9FFDEB2FA82F2002A41
:1082C80050D1CB1B4FEA174E1FFA87F80126B3FB94
:1082D800FEFC210C0EFB1C3341EA034108FB0CF3A6
:1082E8008B4207D979180CF1FF3002D28B4200F289
:1082F800E9808446C91AA3B2B1FBFEF00EFB101147
:1083080043EA014408FB00F8A04507D93C1900F1ED
:10831800FF3302D2A04500F2D9801846A4EB080426
:1083280040EA0C40BFE78B4209D9002D00F0B1802C
:108338000026C5E9000130463146BDE8F087B3FAAA
:1083480083F6002E4AD18B4202D3824200F2B880D3
:10835800841A61EB030101208C46002DA8D0C5E9E1
:10836800004CA5E7C2F1200320FA03F6974001FA72
:1083780002F04FEA174ED9403043030CB1FBFEF62A
:108388001FFA87F80EFB161143EA014306FB08F1B2
:10839800994204FA02F409D9FB1806F1FF3C80F06F
:1083A8008D80994240F28A80023E3B445B1A81B23A
:1083B800B3FBFEF00EFB103341EA034100FB08F368
:1083C8008B4207D9791800F1FF3C73D28B4271D9DF
:1083D80002383944CB1A40EA064678E7C6F1200C41
:1083E80003FA06F422FA0CF31C4320FA0CF701FAFC
:1083F80006F34FEA144E21FA0CF11F433B0CB1FB74
:10840800FEF91FFA84F80EFB191143EA014109FB32
:1084180008FA8A4502FA06F200FA06F308D9611842
:1084280009F1FF3048D28A4546D9A9F10209214409
:10843800A1EB0A01BFB2B1FBFEF00EFB101147EA37
:10844800014700FB08F8B84507D9E71900F1FF31E3
:108458002ED2B8452CD90238274440EA0940A7EB68
:108468000807A0FB02894F45C64649461AD317D0CC
:108478005DB1B3EB0E0267EB010707FA0CFCF240A3
:108488004CEA0202F740C5E9002700263146BDE85C
:10849800F0872E4628460BE70646E9E61846FDE62D
:1084A8004345E5D2B8EB020E69EB04010138DFE77A
:1084B8000846D2E760468DE78146B9E7664675E724
:1084C80030464AE7ACF1020C394413E702383C4421
:1084D80024E700BF704700BF80B500AF0E4B1B6894
:1084E8000D4A43F4007313600B4B1B680A4A43F4AC
:1084F80080631360084B1B68074A43F4807313605A
:10850800032000F09DFE0F2000F042F800F032F842
:108518000023184680BD00BF003C024080B500AF74
:10852800134B4FF0FF321A62114B00221A62104BA4
:108538004FF0FF325A620E4B00225A620C4B4FF03A
:10854800FF321A610A4B00221A61094B4FF0FF32C1
:108558005A61074B00225A61054B4FF0FF329A616E
:10856800034B00229A6100F00CF80023184680BDE6
:108578000038024080B400AF00BFBD465DF8047B00
:10858800704780B400AF00BFBD465DF8047B7047FC
:1085980080B582B000AF7860124B1A68124B1B7816
:1085A80019464FF47A73B3FBF1F3B2FBF3F31846B1
:1085B80000F06DFE0346002B01D001230EE07B681E
:1085C8000F2B0AD8002279684FF0FF3000F043FEE5
:1085D800064A7B681360002300E001231846083729
:1085E800BD4680BD0C0200200400002000000020D1
:1085F80080B400AF064B1B781A46064B1B68134421
:10860800044A136000BFBD465DF8047B704700BF95
:10861800040000205002002080B400AF034B1B6808
:108628001846BD465DF8047B704700BF5002002025
:1086380080B584B000AF7860FFF7EEFFB8607B6864
:10864800FB60FB68B3F1FF3F05D00A4B1B781A4665
:10865800FB681344FB6000BFFFF7DEFF0246BB6800
:10866800D31AFA689A42F7D800BF00BF1037BD4640
:1086780080BD00BF0400002080B584B000AF7860E2
:108688007B68002B01D10123EDE07B6893F8203053
:10869800DBB2002B02D1786800F0E9F87B681B6830
:1086A8001A687B681B6822F002021A60FFF7B4FFA1
:1086B800F86012E0FFF7B0FF0246FB68D31A0A2BF6
:1086C8000BD97B685B6A43F400327B685A627B682B
:1086D800052283F820200123C5E07B681B685B68BE
:1086E80003F00203002BE5D17B681B681A687B68DE
:1086F8001B6842F001021A60FFF78EFFF86012E073
:10870800FFF78AFF0246FB68D31A0A2B0BD97B684E
:108718005B6A43F400327B685A627B68052283F8FF
:10872800202001239FE07B681B685B6803F001033E
:10873800002BE5D07B681B7E012B08D17B681B686A
:108748001A687B681B6842F080021A6007E07B6841
:108758001B681A687B681B6822F080021A607B68B5
:108768005B7E012B08D17B681B681A687B681B68D5
:1087780042F040021A6007E07B681B681A687B6851
:108788001B6822F040021A607B689B7E012B08D18F
:108798007B681B681A687B681B6842F020021A60B5
:1087A80007E07B681B681A687B681B6822F0200258
:1087B8001A607B68DB7E012B08D17B681B681A680E
:1087C8007B681B6822F010021A6007E07B681B6850
:1087D8001A687B681B6842F010021A607B681B7F6E
:1087E800012B08D17B681B681A687B681B6842F0FC
:1087F80008021A6007E07B681B681A687B681B68B8
:1088080022F008021A607B685B7F012B08D17B6825
:108818001B681A687B681B6842F004021A6007E04C
:108828007B681B681A687B681B6822F004021A6060
:108838007B689A687B68DB681A437B681B691A4304
:108848007B685B6942EA03017B685B685A1E7B6848
:108858001B680A43DA617B6800225A627B6801223E
:1088680083F82020002318461037BD4680BD80B409
:1088780083B000AF786000BF0C37BD465DF8047B5D
:108888007047000080B487B000AF786039607B68BB
:108898001B687B617B6893F82030FB74FB7C012BA1
:1088A80003D0FB7C022B40F0BE80654B7B617B696B
:1088B800D3F8003243F001027B69C3F800227B69D8
:1088C800D3F8003223F47C527B69C3F800227B6919
:1088D800D3F800223B685B6A1B021A437B69C3F822
:1088E80000223B685B6903F01F03012202FA03F3CD
:1088F800FB607B69D3F81C22FB68DB431A407B6969
:10890800C3F81C223B68DB69002B23D17B69D3F8B1
:108918000C22FB68DB431A407B69C3F80C223B68D6
:10892800DB6819043B685B689BB23A685269194373
:108938007B69483243F832103B689B6819043B68EE
:108948001B689AB23B685B690A4379694833DB0064
:108958000B445A603B68DB69012B22D17B69D3F851
:108968000C22FB681A437B69C3F80C223B681B681E
:1089780019043B685B689BB23A68526919437B6982
:10898800483243F832103B689B6819043B68DB683F
:108998009AB23B685B690A4379694833DB000B4448
:1089A8005A603B689B69002B09D17B69D3F8042284
:1089B800FB68DB431A407B69C3F8042207E07B6944
:1089C800D3F80422FB681A437B69C3F804223B6886
:1089D8001B69002B09D17B69D3F81422FB68DB43A0
:1089E8001A407B69C3F8142207E07B69D3F8142284
:1089F800FB681A437B69C3F814223B681B6A012B86
:108A080007D17B69D3F81C22FB681A437B69C3F83A
:108A18001C227B69D3F8003223F001027B69C3F87A
:108A28000022002306E07B685B6A43F480227B68AF
:108A38005A62012318461C37BD465DF8047B70470F
:108A48000064004080B487B000AFF860B9607A6015
:108A58003B60FB6893F82030FB75FB7D012B03D04E
:108A6800FB7D022B40F0F380BB68002B0ED1FB6826
:108A78001B68DB6803F00303002B16D1FB685B6AF5
:108A880043F40012FB685A620123E7E0FB681B68A5
:108A98001B6903F00303002B07D1FB685B6A43F4EF
:108AA8000012FB685A620123D8E0FB681A68BB68A9
:108AB8001B331B0113441B6803F004027B689A6094
:108AC8007B689B68002B0CD1FB681A68BB681B335A
:108AD8001B0113441B685B0DC3F30A027B681A6011
:108AE8000BE0FB681A68BB681B331B0113441B6847
:108AF800DB0823F060427B685A60FB681A68BB6831
:108B08001B331B0113441B6803F002027B68DA6005
:108B1800FB681A68BB681B331B01134404331B68CA
:108B280003F00F027B681A61FB681A68BB681B3385
:108B38001B01134404331B681B0ADAB27B689A6171
:108B4800FB681A68BB681B331B01134404331B689A
:108B58001B0C9AB27B685A61FB681A68BB681B01D8
:108B6800134403F5DC731B68DAB23B681A70FB68C0
:108B78001A68BB681B01134403F5DC731B681A0AE7
:108B88003B680133D2B21A70FB681A68BB681B01D4
:108B9800134403F5DC731B681A0C3B680233D2B22A
:108BA8001A70FB681A68BB681B01134403F5DC7371
:108BB8001B681A0E3B680333D2B21A70FB681A6836
:108BC800BB681B01134403F5DE731A683B68043362
:108BD800D2B21A70FB681A68BB681B01134403F50C
:108BE800DE731B681A0A3B680533D2B21A70FB6839
:108BF8001A68BB681B01134403F5DE731B681A0C63
:108C08003B680633D2B21A70FB681A68BB681B014E
:108C1800134403F5DE731B681A0E3B680733D2B2A0
:108C28001A70BB68002B08D1FB681B68DA68FB6800
:108C38001B6842F02002DA6007E0FB681B681A69CB
:108C4800FB681B6842F020021A61002306E0FB68FB
:108C58005B6A43F48022FB685A62012318461C377A
:108C6800BD465DF8047B704780B58AB000AF786078
:108C780000237B627B681B685B693B627B681B68BF
:108C88005B68FB617B681B689B68BB617B681B68D2
:108C9800DB687B617B681B681B693B617B681B68C1
:108CA8009B69FB603B6A03F00103002B7CD0BB6926
:108CB80003F00103002B23D07B681B6801229A6014
:108CC800BB6903F00203002B03D0786800F083F936
:108CD80016E0BB6903F00403002B04D07B6A43F45D
:108CE80000637B620CE0BB6903F00803002B04D02F
:108CF8007B6A43F480537B6202E0786800F089F96C
:108D0800BB6903F48073002B24D07B681B684FF485
:108D180080729A60BB6903F40073002B03D07868F3
:108D280000F063F916E0BB6903F48063002B04D0FC
:108D38007B6A43F400537B620CE0BB6903F4006375
:108D4800002B04D07B6A43F480437B6202E078689E
:108D580000F069F9BB6903F48033002B24D07B68E9
:108D68001B684FF480329A60BB6903F40033002B10
:108D780003D0786800F043F916E0BB6903F4802358
:108D8800002B04D07B6A43F400437B620CE0BB6990
:108D980003F40023002B04D07B6A43F480337B6206
:108DA80002E0786800F049F93B6A03F00803002BF9
:108DB8000CD07B6903F01003002B07D07B6A43F4C7
:108DC80000737B627B681B681022DA603B6A03F0E1
:108DD8000403002B0BD07B6903F00803002B06D09B
:108DE8007B681B680822DA60786800F03AF93B6A09
:108DF80003F00203002B09D07B681B68DB6803F0D3
:108E08000303002B02D0786800F021F93B6A03F0D5
:108E18004003002B0CD03B6903F01003002B07D054
:108E28007B6A43F480637B627B681B6810221A614B
:108E38003B6A03F02003002B0BD03B6903F00803C7
:108E4800002B06D07B681B6808221A61786800F03E
:108E58001CF93B6A03F01003002B09D07B681B68E0
:108E68001B6903F00303002B02D0786800F003F9B4
:108E78003B6A03F40033002B0BD0FB6903F01003AB
:108E8800002B06D07B681B6810225A60786800F0B7
:108E980006F93B6A03F48033002B0BD0FB6903F01F
:108EA8000803002B06D07B681B6808225A60786884
:108EB80000F0FFF83B6A03F40043002B7BD0FB690A
:108EC80003F00403002B72D03B6A03F48073002B79
:108ED80008D0FB6803F00103002B03D07B6A43F042
:108EE80001037B623B6A03F40073002B08D0FB6824
:108EF80003F00203002B03D07B6A43F002037B627A
:108F08003B6A03F48063002B08D0FB6803F004037A
:108F1800002B03D07B6A43F004037B623B6A03F4B3
:108F28000063002B43D0FB6803F07003002B3ED096
:108F3800FB6803F07003602B2BD0602B2ED8502BCE
:108F480022D0502B2AD8402B19D0402B26D8302B92
:108F580010D0302B22D8102B02D0202B05D01DE0AA
:108F68007B6A43F008037B6219E07B6A43F01003D5
:108F78007B6214E07B6A43F020037B620FE07B6A2C
:108F880043F040037B620AE07B6A43F080037B6224
:108F980005E07B6A43F480737B6200E000BF7B6876
:108FA8001B689A697B681B6822F070029A617B686B
:108FB8001B6804225A607B6A002B08D07B685A6AB7
:108FC8007B6A1A437B685A62786800F07CF800BFB5
:108FD8002837BD4680BD80B483B000AF786000BF3D
:108FE8000C37BD465DF8047B704780B483B000AF92
:108FF800786000BF0C37BD465DF8047B704780B4CD
:1090080083B000AF786000BF0C37BD465DF8047BC5
:10901800704780B483B000AF786000BF0C37BD469E
:109028005DF8047B704780B483B000AF786000BF00
:109038000C37BD465DF8047B704780B483B000AF41
:10904800786000BF0C37BD465DF8047B704780B47C
:1090580083B000AF786000BF0C37BD465DF8047B75
:10906800704780B483B000AF786000BF0C37BD464E
:109078005DF8047B704780B483B000AF786000BFB0
:109088000C37BD465DF8047B704780B483B000AFF1
:10909800786000BF0C37BD465DF8047B704780B42C
:1090A80083B000AF786000BF0C37BD465DF8047B25
:1090B800704780B483B000AF786000BF0C37BD46FE
:1090C8005DF8047B704780B483B000AF786000BF60
:1090D8000C37BD465DF8047B7047000080B485B04E
:1090E80000AF78607B6803F00703FB600C4BDB681C
:1090F800BB60BA684FF6FF031340BB60FB681A02F7
:10910800BB68134343F0BF6343F40033BB60044AB6
:10911800BB68D36000BF1437BD465DF8047B704759
:1091280000ED00E080B400AF044BDB681B0A03F0DD
:1091380007031846BD465DF8047B704700ED00E064
:1091480080B483B000AF03463960FB7197F90730EC
:10915800002B0ADB3B68DAB20C4997F90730120199
:10916800D2B20B4483F800230AE03B68DAB208491C
:10917800FB7903F00F03043B1201D2B20B441A76B9
:1091880000BF0C37BD465DF8047B704700E100E086
:1091980000ED00E080B489B000AFF860B9607A6093
:1091A800FB6803F00703FB61FB69C3F10703042BAA
:1091B80028BF0423BB61FB690433062B02D9FB6972
:1091C800033B00E000237B614FF0FF32BB6902FAEA
:1091D80003F3DA43BB681A407B699A404FF0FF31CA
:1091E8007B6901FA03F3D9437B680B4013431846A4
:1091F8002437BD465DF8047B7047000080B582B017
:1092080000AF78607B68013BB3F1807F01D3012315
:109218000FE00A4A7B68013B53600F214FF0FF3093
:10922800FFF78EFF054B00229A60044B07221A6055
:10923800002318460837BD4680BD00BF10E000E097
:1092480080B582B000AF78607868FFF747FF00BF4D
:109258000837BD4680BD80B586B000AF0346B9600B
:109268007A60FB7300237B61FFF75CFF78617A68A3
:10927800B9687869FFF78EFF024697F90F301146F3
:109288001846FFF75DFF00BF1837BD4680BD80B5A3
:1092980082B000AF78607868FFF7B0FF03461846E1
:1092A8000837BD4680BD80B584B000AF78607B6864
:1092B8009B6DFB60FFF7B0F9B8607B6893F83530B9
:1092C800DBB2022B08D07B6880225A657B680022BB
:1092D80083F83420012352E07B681B681A687B6896
:1092E8001B6822F016021A607B681B685A697B6843
:1092F8001B6822F080025A617B681B6C002B03D12B
:109308007B689B6C002B07D07B681B681A687B689E
:109318001B6822F008021A607B681B681A687B6861
:109328001B6822F001021A6013E0FFF775F9024684
:10933800BB68D31A052B0CD97B6820225A657B6839
:10934800002283F834207B68032283F83520032326
:1093580015E07B681B681B6803F00103002BE4D150
:109368007B68DB6D3F229A40FB689A607B6800222D
:1093780083F834207B68012283F8352000231846BF
:109388001037BD4680BD80B483B000AF78607B687D
:1093980093F83530DBB2022B04D07B6880225A6503
:1093A80001230CE07B68052283F835207B681B6865
:1093B8001A687B681B6822F001021A6000231846AD
:1093C8000C37BD465DF8047B7047000080B489B057
:1093D80000AF7860396000237B6100233B61002384
:1093E800BB610023FB616BE10122FB6902FA03F315
:1093F8007B613B681B687A6913403B613A697B690A
:109408009A4240F05A813B685B6803F00303012BE2
:1094180005D03B685B6803F00303022B30D17B68FF
:109428009B68BB61FB695B00032202FA03F3DB4321
:10943800BA691340BB613B68DA68FB695B0002FAF2
:1094480003F3BA691343BB617B68BA699A607B68A6
:109458005B68BB610122FB6902FA03F3DB43BA696B
:109468001340BB613B685B681B0903F00102FB69A1
:1094780002FA03F3BA691343BB617B68BA695A609D
:109488003B685B6803F00303032B17D07B68DB683A
:10949800BB61FB695B00032202FA03F3DB43BA6991
:1094A8001340BB613B689A68FB695B0002FA03F3EF
:1094B800BA691343BB617B68BA69DA603B685B6869
:1094C80003F00303022B23D1FB69DA087B68083217
:1094D80053F82230BB61FB6903F007039B000F229E
:1094E80002FA03F3DB43BA691340BB613B681A69AC
:1094F800FB6903F007039B0002FA03F3BA691343FD
:10950800BB61FB69DA087B680832B96943F8221045
:109518007B681B68BB61FB695B00032202FA03F3EB
:10952800DB43BA691340BB613B685B6803F0030225
:10953800FB695B0002FA03F3BA691343BB617B68FA
:10954800BA691A603B685B6803F08053002B00F02F
:10955800B4800023FB60604B5B6C5F4A43F480433C
:1095680053645D4B5B6C03F48043FB60FB685B4AB0
:10957800FB699B08023352F82330BB61FB6903F097
:1095880003039B000F2202FA03F3DB43BA6913407B
:10959800BB617B68524A93422BD07B68514A934205
:1095A80025D07B68504A93421FD07B684F4A93422C
:1095B80019D07B684E4A934213D07B684D4A934238
:1095C8000DD07B684C4A934207D07B684B4A934244
:1095D80001D107230EE008230CE006230AE0052347
:1095E80008E0042306E0032304E0022302E0012349
:1095F80000E00023FA6902F0030292009340BA697E
:109608001343BB613549FB699B080233BA6941F8CA
:1096180023203B4B1B68BB613B69DB43BA691340A2
:10962800BB613B685B6803F48033002B03D0BA69E5
:109638003B691343BB61324ABB691360304B5B68BB
:10964800BB613B69DB43BA691340BB613B685B683C
:1096580003F40033002B03D0BA693B691343BB61A1
:10966800274ABB695360264B9B68BB613B69DB4358
:10967800BA691340BB613B685B6803F48013002B35
:1096880003D0BA693B691343BB611D4ABB69936048
:109698001B4BDB68BB613B69DB43BA691340BB61A9
:1096A8003B685B6803F40013002B03D0BA693B697D
:1096B8001343BB61124ABB69D360FB690133FB6189
:1096C800FB690F2B7FF690AE00BF00BF2437BD4665
:1096D8005DF8047B704700BF003802400038014045
:1096E800000002400004024000080240000C024052
:1096F800001002400014024000180240001C024002
:10970800003C014080B485B000AF78600B467B8098
:109718007B681A697B881340002B02D00123FB73F6
:1097280001E00023FB73FB7B18461437BD465DF848
:10973800047B704780B483B000AF78600B467B80B1
:1097480013467B707B78002B03D07A887B689A61FC
:1097580003E07B881A047B689A6100BF0C37BD461A
:109768005DF8047B704780B485B000AF78600B4625
:109778007B807B685B69FB607A88FB6813401A040E
:10978800FB68D9437B880B401A437B689A6100BF0A
:109798001437BD465DF8047B704780B584B000AFD0
:1097A80078607B68002B01D1012334E07B681B685B
:1097B8004CF6CC421A607B681B6845F255521A6019
:1097C8007B681B687A6852685A607B681B687A688D
:1097D80092689A60FEF720FFF8600FE0FEF71CFF22
:1097E8000246FB68D31A302B08D97B681B68DB68F4
:1097F80003F00303002B01D003230CE07B681B68F4
:10980800DB6803F00303002BE8D17B681B684AF68A
:10981800AA221A60002318461037BD4680BD80B4BE
:1098280083B000AF78607B681B684AF6AA221A608A
:10983800002318460C37BD465DF8047B70470000CE
:1098480080B584B000AFF860B9607A60FB68002B1F
:1098580001D1012343E0FB6893F84930DBB2002BC8
:1098680006D1FB68002283F84820F86800F03EF82B
:10987800FB681A68FB6808331946104602F0C6F9F7
:10988800FB681868FB689B681A46B96802F010FA0A
:10989800FB685868FB689A68FB681B6B796802F07C
:1098A80045FAFB681B68FA68926853F82210FB684F
:1098B8001B68FA68926841F0010143F82210FB68BE
:1098C8005B69002B03D1084B00221A6002E0064BAB
:1098D80001221A60FB68012283F8492000231846F8
:1098E8001037BD4680BD00BF2C02002080B483B075
:1098F80000AF786000BF0C37BD465DF8047B704749
:1099080080B586B000AF78607B68002B01D1012359
:1099180064E27B681B6803F00103002B75D0A34B3E
:109928009B6803F00C03042B0CD0A04B9B6803F03E
:109938000C03082B12D19D4B5B6803F48003B3F52D
:10994800800F0BD1994B1B6803F40033002B5BD0BD
:109958007B685B68002B57D101233FE27B685B681B
:10996800B3F5803F06D1914B1B68904A43F480338E
:1099780013601DE07B685B68B3F5A02F0CD18B4B9F
:109988001B688A4A43F480231360884B1B68874A04
:1099980043F4803313600BE0844B1B68834A23F441
:1099A80080331360814B1B68804A23F48023136043
:1099B8007B685B68002B13D0FEF72EFE386108E049
:1099C800FEF72AFE02463B69D31A642B01D903230A
:1099D80004E2764B1B6803F40033002BF0D014E04C
:1099E800FEF71AFE386108E0FEF716FE02463B69EC
:1099F800D31A642B01D90323F0E16C4B1B6803F4E1
:109A08000033002BF0D100E000BF7B681B6803F037
:109A18000203002B63D0654B9B6803F00C03002BFB
:109A28000BD0624B9B6803F00C03082B1CD15F4BD7
:109A38005B6803F48003002B16D15C4B1B6803F0B2
:109A48000203002B05D07B68DB68012B01D00123C2
:109A5800C4E1564B1B6823F0F8027B681B69DB00E6
:109A6800524913430B603AE07B68DB68002B20D037
:109A78004F4B01221A60FEF7CFFD386108E0FEF770
:109A8800CBFD02463B69D31A022B01D90323A5E17A
:109A9800464B1B6803F00203002BF0D0434B1B68B6
:109AA80023F0F8027B681B69DB00404913430B6015
:109AB80015E03F4B00221A60FEF7AEFD386108E062
:109AC800FEF7AAFD02463B69D31A022B01D90323EC
:109AD80084E1364B1B6803F00203002BF0D17B684E
:109AE8001B6803F00803002B30D07B685B69002BF0
:109AF80016D0304B01221A60FEF78EFD386108E05F
:109B0800FEF78AFD02463B69D31A022B01D90323CB
:109B180064E1264B5B6F03F00203002BF0D015E0E5
:109B2800244B00221A60FEF777FD386108E0FEF743
:109B380073FD02463B69D31A022B01D903234DE179
:109B48001A4B5B6F03F00203002BF0D17B681B6894
:109B580003F00403002B00F0A0800023FB75134BD7
:109B68001B6C03F08053002B0FD10023BB600F4BFD
:109B78001B6C0E4A43F0805313640C4B1B6C03F0B0
:109B88008053BB60BB680123FB750B4B1B6803F458
:109B98008073002B21D1084B1B68074A43F480735C
:109BA8001360FEF739FD386111E000BF003802404C
:109BB80000004742800E474200700040FEF72CFD2F
:109BC80002463B69D31A022B01D9032306E1854BD0
:109BD8001B6803F48073002BF0D07B689B68012B13
:109BE80006D1814B1B6F804A43F0010313671CE0C9
:109BF8007B689B68052B0CD17B4B1B6F7A4A43F023
:109C080004031367784B1B6F774A43F0010313670C
:109C18000BE0754B1B6F744A23F001031367724BFB
:109C28001B6F714A23F0040313677B689B68002B42
:109C380015D0FEF7F1FC38610AE0FEF7EDFC0246AC
:109C48003B69D31A41F28832934201D90323C5E014
:109C5800654B1B6F03F00203002BEED014E0FEF7F8
:109C6800DBFC38610AE0FEF7D7FC02463B69D31AF1
:109C780041F28832934201D90323AFE05A4B1B6F5C
:109C880003F00203002BEED1FB7D012B05D1564BCF
:109C98001B6C554A23F0805313647B689B69002B27
:109CA80000F09B80504B9B6803F00C03082B5CD0A2
:109CB8007B689B69022B41D14C4B00221A60FEF74E
:109CC800ABFC386108E0FEF7A7FC02463B69D31AF3
:109CD800022B01D9032381E0434B1B6803F0007377
:109CE800002BF0D17B68DA697B681B6A1A437B68B2
:109CF8005B6A9B011A437B689B6A5B08013B1B04F8
:109D08001A437B68DB6A1B06374913434B60374BA2
:109D180001221A60FEF780FC386108E0FEF77CFC3F
:109D280002463B69D31A022B01D9032356E02E4B76
:109D38001B6803F00073002BF0D04EE02B4B002281
:109D48001A60FEF769FC386108E0FEF765FC024618
:109D58003B69D31A022B01D903233FE0224B1B682E
:109D680003F00073002BF0D137E07B689B69012B6F
:109D780001D1012332E01C4B5B68FB607B689B6967
:109D8800012B28D0FB6803F480027B68DB699A42C8
:109D980021D1FB6803F03F027B681B6A9A421AD103
:109DA800FA6847F6C07313407A68526A9201934280
:109DB80011D1FB6803F440327B689B6A5B08013B66
:109DC8001B049A4207D1FB6803F070627B68DB6A68
:109DD8001B069A4201D0012300E0002318461837D9
:109DE800BD4680BD00700040003802406000474218
:109DF80080B584B000AF786039607B68002B01D1F2
:109E08000123CCE0684B1B6803F007033A689A42C9
:109E18000CD9654B3A68D2B21A70634B1B6803F0D1
:109E280007033A689A4201D00123B8E07B681B68AF
:109E380003F00203002B20D07B681B6803F00403A7
:109E4800002B05D0594B9B68584A43F4E053936064
:109E58007B681B6803F00803002B05D0534B9B68F5
:109E6800524A43F460439360504B9B6823F0F002DE
:109E78007B689B684D4913438B607B681B6803F0C4
:109E88000103002B44D07B685B68012B07D1474B4B
:109E98001B6803F40033002B19D101237FE07B6892
:109EA8005B68022B03D07B685B68032B07D13F4BB1
:109EB8001B6803F00073002B09D101236FE03B4BB3
:109EC8001B6803F00203002B01D1012367E0374B25
:109ED8009B6823F003027B685B68344913438B60FB
:109EE800FEF79AFBF8600AE0FEF796FB0246FB686D
:109EF800D31A41F28832934201D903234FE02B4B06
:109F08009B6803F00C027B685B689B009A42EBD16C
:109F1800254B1B6803F007033A689A420CD2224B80
:109F28003A68D2B21A70204B1B6803F007033A68EC
:109F38009A4201D0012332E07B681B6803F00403D6
:109F4800002B08D0194B9B6823F4E0527B68DB6830
:109F5800164913438B607B681B6803F00803002BCA
:109F680009D0124B9B6823F460427B681B69DB00B5
:109F78000E4913438B6000F021F802460B4B9B6897
:109F88001B0903F00F030A49CB5C22FA03F3094AC1
:109F98001360094B1B681846FEF7FAFA00231846A7
:109FA8001037BD4680BD00BF003C0240003802406B
:109FB800EC1F01080C020020000000202DE9B0432E
:109FC80084B000AF00237B600023FB6000233B606C
:109FD8000023BB60674B9B6803F00C03082B0DD074
:109FE800082B00F2BD80002B02D0042B03D0B7E071
:109FF800614BBB60B7E0614BBB60B4E05D4B5B6835
:10A0080003F03F037B605B4B5B6803F48003002B2A
:10A018004DD0584B5B689B091A464FF0000340F23D
:10A02800FF104FF0000102EA000803EA0109404668
:10A0380049464FF000024FF000034B0143EAD0635A
:10A04800420110461946B0EB080061EB09014FF0D8
:10A0580000024FF000038B0143EA90638201121A59
:10A0680063EB01034FF000004FF00001D90041EA13
:10A078005271D00002460B4612EB080243EB09036B
:10A088004FF000004FF00001590241EAD25150024E
:10A0980002460B46104619467B681A464FF00003E5
:10A0A800FEF79EF802460B461346FB604AE0314B2A
:10A0B8005B689B091A464FF0000340F2FF104FF00F
:10A0C800000102EA000403EA0105204629464FF090
:10A0D80000024FF000034B0143EAD06342011046EF
:10A0E8001946001B61EB05014FF000024FF0000319
:10A0F8008B0143EA90638201121A63EB01034FF06C
:10A1080000004FF00001D90041EA5271D000024628
:10A118000B46121945EB03034FF000004FF0000106
:10A12800990241EA9251900202460B46104619469E
:10A138007B681A464FF00003FEF752F802460B46BA
:10A148001346FB600B4B5B681B0C03F003030133E6
:10A158005B003B60FA683B68B2FBF3F3BB6002E06C
:10A16800054BBB6000BFBB6818461037BD46BDE84D
:10A17800B08300BF003802400024F40000127A00C7
:10A1880080B582B000AF78607B68002B01D10123D5
:10A198007BE07B685B6A002B08D17B685B68B3F562
:10A1A800827F09D07B680022DA6105E07B680022A3
:10A1B8001A617B6800225A617B6800229A627B6878
:10A1C80093F85130DBB2002B06D17B68002283F86C
:10A1D8005020786800F05DF87B68022283F85120EF
:10A1E8007B681B681A687B681B6822F040021A604B
:10A1F8007B685B6803F482727B689B6803F40443A2
:10A208001A437B68DB6803F400631A437B681B69A5
:10A2180003F002031A437B685B6903F001031A43E6
:10A228007B689B6903F400731A437B68DB6903F05E
:10A2380038031A437B681B6A03F0800342EA030170
:10A248007B689B6A03F400527B681B680A431A60A8
:10A258007B689B691B0C03F004017B685B6A03F055
:10A2680010027B681B680A435A607B681B68DA69BE
:10A278007B681B6822F40062DA617B6800225A65F9
:10A288007B68012283F85120002318460837BD4611
:10A2980080BD80B483B000AF786000BF0C37BD4686
:10A2A8005DF8047B704780B588B000AFF860B9608E
:10A2B8003B601346FB800023FB77FB6893F8503024
:10A2C800012B01D1022326E1FB68012283F85020EB
:10A2D800FEF7A2F9B861FB88FB82FB6893F851305E
:10A2E800DBB2012B02D00223FB770BE1BB68002B0A
:10A2F80002D0FB88002B02D10123FB7702E1FB6827
:10A30800032283F85120FB6800225A65FB68BA686B
:10A318001A63FB68FA889A86FB68FA88DA86FB680B
:10A3280000229A63FB6800229A87FB680022DA877A
:10A33800FB6800225A64FB6800221A64FB689B6869
:10A34800B3F5004F0FD1FB681B681A68FB681B68E0
:10A3580022F040021A60FB681B681A68FB681B68D9
:10A3680042F480421A60FB681B681B6803F04003D4
:10A37800402B07D0FB681B681A68FB681B6842F013
:10A3880040021A60FB68DB68B3F5006F4BD1FB68CD
:10A398005B68002B02D0FB8A012B3ED1FB681B6B4C
:10A3A8001A88FB681B68DA60FB681B6B9A1CFB68E1
:10A3B8001A63FB68DB8E9BB2013B9AB2FB68DA86B4
:10A3C8002BE0FB681B689B6803F00203022B12D189
:10A3D800FB681B6B1A88FB681B68DA60FB681B6BE1
:10A3E8009A1CFB681A63FB68DB8E9BB2013B9AB22E
:10A3F800FB68DA8611E0FEF70FF90246BB69D31A4B
:10A408003A689A4203D83B68B3F1FF3F02D13B68F0
:10A41800002B02D10323FB7774E0FB68DB8E9BB231
:10A42800002BCED14CE0FB685B68002B02D0FB8A86
:10A43800012B40D1FB681A6BFB681B680C33127840
:10A448001A70FB681B6B5A1CFB681A63FB68DB8E6F
:10A458009BB2013B9AB2FB68DA862CE0FB681B686A
:10A468009B6803F00203022B13D1FB681A6BFB688D
:10A478001B680C3312781A70FB681B6B5A1CFB683C
:10A488001A63FB68DB8E9BB2013B9AB2FB68DA86E3
:10A4980011E0FEF7C1F80246BB69D31A3A689A423E
:10A4A80003D83B68B3F1FF3F02D13B68002B02D1D0
:10A4B8000323FB7726E0FB68DB8E9BB2002BCDD114
:10A4C800BA693968F86800F0CBFB0346002B02D064
:10A4D800FB6820225A65FB689B68002B0AD1002381
:10A4E8003B61FB681B68DB683B61FB681B689B681A
:10A4F8003B613B69FB685B6D002B02D00123FB7756
:10A5080000E000BFFB68012283F85120FB680022AD
:10A5180083F85020FB7F18462037BD4680BD80B5A4
:10A5280088B002AFF860B9603B601346FB80002337
:10A53800FB75FB685B68B3F5827F12D1FB689B688B
:10A54800002B0ED1FB68042283F85120FA883B685F
:10A5580000931346BA68B968F86800F0F1F8034642
:10A56800EAE0FB6893F85030012B01D10223E3E0C5
:10A57800FB68012283F85020FEF74EF83861FB682B
:10A5880093F85130DBB2012B02D00223FB75CAE0ED
:10A59800BB68002B02D0FB88002B02D10123FB757E
:10A5A800C1E0FB68042283F85120FB6800225A6549
:10A5B800FB68BA689A63FB68FA889A87FB68FA8826
:10A5C800DA87FB6800221A63FB6800229A86FB6818
:10A5D8000022DA86FB6800221A64FB6800225A64AB
:10A5E800FB689B68B3F5004F0FD1FB681B681A68BE
:10A5F800FB681B6822F040021A60FB681B681A6837
:10A60800FB681B6822F480421A60FB681B681B68A1
:10A6180003F04003402B07D0FB681B681A68FB68EF
:10A628001B6842F040021A60FB68DB68002B62D1AD
:10A638002EE0FB681B689B6803F00103012B15D112
:10A64800FB681B6803F10C02FB689B6B1278D2B2A3
:10A658001A70FB689B6B5A1CFB689A63FB68DB8F5C
:10A668009BB2013B9AB2FB68DA8711E0FDF7D4FF91
:10A6780002463B69D31A3A689A4203D83B68B3F159
:10A68800FF3F02D13B68002B02D10323FB754AE050
:10A69800FB68DB8F9BB2002BCBD131E0FB681B68DA
:10A6A8009B6803F00103012B13D1FB681B68DA6870
:10A6B800FB689B6B92B21A80FB689B6B9A1CFB68C9
:10A6C8009A63FB68DB8F9BB2013B9AB2FB68DA871F
:10A6D80011E0FDF7A1FF02463B69D31A3A689A4296
:10A6E80003D83B68B3F1FF3F02D13B68002B02D18E
:10A6F8000323FB7517E0FB68DB8F9BB2002BCDD1E2
:10A708003A693968F86800F045FA0346002B02D028
:10A71800FB6820225A65FB685B6D002B02D0012381
:10A72800FB7500E000BFFB68012283F85120FB683D
:10A73800002283F85020FB7D18461837BD4680BD9F
:10A7480080B58CB000AFF860B9607A607B80012377
:10A75800FB62002387F82B30FB6893F85030012BFD
:10A7680001D102238AE1FB68012283F85020FDF71A
:10A7780053FF7862FB6893F8513087F82330FB6801
:10A788005B68FB617B887B8397F82330012B0FD0B4
:10A79800FB69B3F5827F07D1FB689B68002B03D167
:10A7A80097F82330042B03D0022387F82B305BE182
:10A7B800BB68002B05D07B68002B02D07B88002B60
:10A7C80003D1012387F82B304EE1FB6893F8513011
:10A7D800DBB2042B03D0FB68052283F85120FB6809
:10A7E80000225A65FB687A689A63FB687A88DA8778
:10A7F800FB687A889A87FB68BA681A63FB687A8864
:10A80800DA86FB687A889A86FB6800221A64FB68F5
:10A8180000225A64FB681B681B6803F04003402B46
:10A8280007D0FB681B681A68FB681B6842F0400287
:10A838001A60FB68DB68B3F5006F78D1FB685B686A
:10A84800002B02D07B8B012B66D1FB681B6B1A880F
:10A85800FB681B68DA60FB681B6B9A1CFB681A6351
:10A86800FB68DB8E9BB2013B9AB2FB68DA8653E049
:10A87800FB681B689B6803F00203022B1BD1FB6873
:10A88800DB8E9BB2002B16D0FB6A012B13D1FB6821
:10A898001B6B1A88FB681B68DA60FB681B6B9A1CC9
:10A8A800FB681A63FB68DB8E9BB2013B9AB2FB68BC
:10A8B800DA860023FB62FB681B689B6803F00103D0
:10A8C800012B19D1FB68DB8F9BB2002B14D0FB68DE
:10A8D8001B68DA68FB689B6B92B21A80FB689B6BFB
:10A8E8009A1CFB689A63FB68DB8F9BB2013B9AB2A8
:10A8F800FB68DA870123FB62FDF78EFE02467B6A5E
:10A90800D31ABA6B9A4207D8BB6BB3F1FF3F03D097
:10A91800032387F82B30A7E0FB68DB8E9BB2002B64
:10A92800A6D1FB68DB8F9BB2002BA1D17CE0FB6832
:10A938005B68002B02D07B8B012B6BD1FB681A6BF9
:10A94800FB681B680C3312781A70FB681B6B5A1C67
:10A95800FB681A63FB68DB8E9BB2013B9AB2FB680B
:10A96800DA8657E0FB681B689B6803F00203022B3A
:10A978001CD1FB68DB8E9BB2002B17D0FB6A012B26
:10A9880014D1FB681A6BFB681B680C3312781A70B9
:10A99800FB681B6B5A1CFB681A63FB68DB8E9BB257
:10A9A800013B9AB2FB68DA860023FB62FB681B68EE
:10A9B8009B6803F00103012B19D1FB68DB8F9BB265
:10A9C800002B14D0FB681B68DA68FB689B6BD2B25B
:10A9D8001A70FB689B6B5A1CFB689A63FB68DB8FD9
:10A9E8009BB2013B9AB2FB68DA870123FB62FDF751
:10A9F80013FE02467B6AD31ABA6B9A4203D8BB6B22
:10AA0800B3F1FF3F02D1BB6B002B03D1032387F8BF
:10AA18002B3029E0FB68DB8E9BB2002BA2D1FB68B0
:10AA2800DB8F9BB2002B9DD17A6AB96BF86800F076
:10AA380017F90346002B06D0012387F82B30FB6853
:10AA480020225A6510E0FB689B68002B0BD100237D
:10AA58007B61FB681B68DB687B61FB681B689B6824
:10AA68007B617B6900E000BFFB68012283F851200D
:10AA7800FB68002283F8502097F82B3018463037AF
:10AA8800BD4680BD80B588B000AFF860B9603B6056
:10AA98001346FB71FDF7C0FD0246BB6A9B1A3A6874
:10AAA8001344FB61FDF7B8FDB861394B1B685B01C6
:10AAB8001B0DFA6902FB03F37B6154E03B68B3F1B9
:10AAC800FF3F50D0FDF7A8FD0246BB69D31AFA69CB
:10AAD8009A4202D9FB69002B3DD1FB681B685A6872
:10AAE800FB681B6822F0E0025A60FB685B68B3F5FC
:10AAF800827F11D1FB689B68B3F5004F04D0FB68D7
:10AB08009B68B3F5806F07D1FB681B681A68FB6800
:10AB18001B6822F040021A60FB689B6AB3F5005F6D
:10AB28000FD1FB681B681A68FB681B6822F4005287
:10AB38001A60FB681B681A68FB681B6842F40052BD
:10AB48001A60FB68012283F85120FB68002283F811
:10AB58005020032317E07B69002B01D10023FB6100
:10AB68007B69013B7B61FB681B689A68BB68134083
:10AB7800BA689A420CBF01230023DBB21A46FB795C
:10AB88009A429BD1002318462037BD4680BD00BF9E
:10AB98000C02002080B586B002AFF860B9607A6018
:10ABA800FB685B68B3F5827F11D1FB689B68B3F5DE
:10ABB800004F04D0FB689B68B3F5806F07D1FB6832
:10ABC8001B681A68FB681B6822F040021A60FB6861
:10ABD8005B68B3F5827F2AD1FB689B68B3F5806F09
:10ABE80012D07B680093BB6800228021F868FFF7C9
:10ABF80049FF0346002B2DD0FB685B6D43F0200214
:10AC0800FB685A65032326E07B680093BB68002233
:10AC18000121F868FFF736FF0346002B1AD0FB68BE
:10AC28005B6D43F02002FB685A65032313E07B68E1
:10AC38000093BB6800220121F868FFF723FF034651
:10AC4800002B07D0FB685B6D43F02002FB685A6558
:10AC5800032300E0002318461037BD4680BD0000DE
:10AC680080B588B002AFF860B9607A601B4B1B688A
:10AC78001B4AA2FB03235B0D4FF47A7202FB03F31A
:10AC88007B61FB685B68B3F5827F12D17B680093B8
:10AC9800BB6800228021F868FFF7F4FE0346002B0A
:10ACA80016D0FB685B6D43F02002FB685A650323EE
:10ACB8000FE07B69002B0AD07B69013B7B61FB6855
:10ACC8001B689B6803F08003802BF2D000E000BF74
:10ACD800002318461837BD4680BD00BF0C0200206F
:10ACE800819F5E1680B582B000AF78607B68002BCC
:10ACF80001D1012341E07B6893F83D30DBB2002BA2
:10AD080006D17B68002283F83C20786800F039F887
:10AD18007B68022283F83D207B681A687B680433CD
:10AD28001946104600F0A6FA7B68012283F84620EF
:10AD38007B68012283F83E207B68012283F83F204C
:10AD48007B68012283F840207B68012283F8412038
:10AD58007B68012283F842207B68012283F8432024
:10AD68007B68012283F844207B68012283F8452010
:10AD78007B68012283F83D20002318460837BD462A
:10AD880080BD80B483B000AF786000BF0C37BD468B
:10AD98005DF8047B7047000080B485B000AF786030
:10ADA8007B6893F83D30DBB2012B01D001234EE0E4
:10ADB8007B68022283F83D207B681B68DA687B6821
:10ADC8001B6842F00102DA607B681B68234A9342E1
:10ADD80022D07B681B68B3F1804F1DD07B681B684D
:10ADE8001F4A934218D07B681B681E4A934213D0AF
:10ADF8007B681B681C4A93420ED07B681B681B4A01
:10AE0800934209D07B681B68194A934204D07B6837
:10AE18001B68184A934211D17B681B689B6803F032
:10AE28000703FB60FB68062B10D07B681B681A6859
:10AE38007B681B6842F001021A6007E07B681B68A8
:10AE48001A687B681B6842F001021A6000231846E2
:10AE58001437BD465DF8047B704700BF0000014011
:10AE68000004004000080040000C004000040140BD
:10AE7800004001400018004080B582B000AF786003
:10AE88007B681B681B6903F00203022B22D17B68D5
:10AE98001B68DB6803F00203022B1BD17B681B686D
:10AEA8006FF002021A617B6801221A777B681B68BF
:10AEB8009B6903F00303002B03D0786800F0BCF90A
:10AEC80005E0786800F0AEF9786800F0BFF97B68B3
:10AED80000221A777B681B681B6903F00403042BA4
:10AEE80022D17B681B68DB6803F00403042B1BD1A9
:10AEF8007B681B686FF004021A617B6802221A776C
:10AF08007B681B689B6903F44073002B03D0786847
:10AF180000F092F905E0786800F084F9786800F0AC
:10AF280095F97B6800221A777B681B681B6903F018
:10AF38000803082B22D17B681B68DB6803F0080331
:10AF4800082B1BD17B681B686FF008021A617B68AD
:10AF580004221A777B681B68DB6903F00303002B64
:10AF680003D0786800F068F905E0786800F05AF9CD
:10AF7800786800F06BF97B6800221A777B681B6899
:10AF88001B6903F01003102B22D17B681B68DB6858
:10AF980003F01003102B1BD17B681B686FF01002A5
:10AFA8001A617B6808221A777B681B68DB6903F4DF
:10AFB8004073002B03D0786800F03EF905E078680C
:10AFC80000F030F9786800F041F97B6800221A77C0
:10AFD8007B681B681B6903F00103012B0ED17B689A
:10AFE8001B68DB6803F00103012B07D17B681B6832
:10AFF8006FF001021A61786800F00AF97B681B6833
:10B008001B6903F08003802B0ED17B681B68DB680B
:10B0180003F08003802B07D17B681B686FF08002E8
:10B028001A61786800F0E6FA7B681B681B6903F010
:10B038004003402B0ED17B681B68DB6803F040039C
:10B04800402B07D17B681B686FF040021A61786853
:10B0580000F006F97B681B681B6903F02003202BAE
:10B068000ED17B681B68DB6803F02003202B07D117
:10B078007B681B686FF020021A61786800F0B0FAEC
:10B0880000BF0837BD4680BD80B584B000AF78608A
:10B0980039607B6893F83C30012B01D10223B3E07F
:10B0A8007B68012283F83C207B68022283F83D20DC
:10B0B8007B681B689B68FB60FB6823F07703FB6079
:10B0C800FB6823F47F43FB607B681B68FA689A601F
:10B0D8003B681B68B3F5005F3ED0B3F5005F00F234
:10B0E8008780B3F5805F00F08580B3F5805F7FD8F7
:10B0F800702B1AD0702B7BD8602B50D0602B77D850
:10B10800502B3CD0502B73D8402B58D0402B6FD8A5
:10B11800302B64D0302B6BD8202B60D0202B67D8F5
:10B12800002B5CD0102B5AD062E07B6818683B6813
:10B1380099683B685A683B68DB6800F0B5F97B683A
:10B148001B689B68FB60FB6843F07703FB607B68C8
:10B158001B68FA689A604EE07B6818683B689968D3
:10B168003B685A683B68DB6800F09EF97B681B689F
:10B178009A687B681B6842F480429A603BE07B686F
:10B1880018683B6859683B68DB681A4600F012F992
:10B198007B681B685021184600F06BF92BE07B6830
:10B1A80018683B6859683B68DB681A4600F031F953
:10B1B8007B681B686021184600F05BF91BE07B6820
:10B1C80018683B6859683B68DB681A4600F0F2F873
:10B1D8007B681B684021184600F04BF90BE07B6840
:10B1E8001A683B681B681946104600F042F902E0ED
:10B1F80000BF00E000BF7B68012283F83D207B6828
:10B20800002283F83C20002318461037BD4680BD35
:10B2180080B483B000AF786000BF0C37BD465DF8DE
:10B22800047B704780B483B000AF786000BF0C37F0
:10B23800BD465DF8047B704780B483B000AF78608A
:10B2480000BF0C37BD465DF8047B704780B483B0FF
:10B2580000AF786000BF0C37BD465DF8047B7047CF
:10B2680080B483B000AF786000BF0C37BD465DF88E
:10B27800047B704780B485B000AF786039607B6824
:10B288001B68FB607B68404A934213D07B68B3F12C
:10B29800804F0FD07B683D4A93420BD07B683C4A75
:10B2A800934207D07B683B4A934203D07B683A4A73
:10B2B800934208D1FB6823F07003FB603B685B682E
:10B2C800FA681343FB607B682F4A93422BD07B6854
:10B2D800B3F1804F27D07B682C4A934223D07B68F8
:10B2E8002B4A93421FD07B682A4A93421BD07B6823
:10B2F800294A934217D07B68284A934213D07B6827
:10B30800274A93420FD07B68264A93420BD07B682A
:10B31800254A934207D07B68244A934203D07B682E
:10B32800234A934208D1FB6823F44073FB603B68CF
:10B33800DB68FA681343FB60FB6823F080023B6814
:10B348005B691343FB607B68FA681A603B689A681C
:10B358007B68DA623B681A687B689A627B680A4A8B
:10B36800934203D07B680C4A934203D13B681A6925
:10B378007B681A637B6801225A6100BF1437BD4697
:10B388005DF8047B704700BF0000014000040040E6
:10B3980000080040000C004000040140004001404B
:10B3A800004401400048014000180040001C0040D3
:10B3B8000020004080B487B000AFF860B9607A60C0
:10B3C800FB681B6A7B61FB681B6A23F00102FB6850
:10B3D8001A62FB689B693B613B6923F0F0033B61A0
:10B3E8007B681B013A6913433B617B6923F00A03BD
:10B3F8007B617A69BB6813437B61FB683A699A6130
:10B40800FB687A691A6200BF1C37BD465DF8047B89
:10B41800704780B487B000AFF860B9607A60FB68A5
:10B428001B6A23F01002FB681A62FB689B697B6148
:10B43800FB681B6A3B617B6923F470437B617B6813
:10B448001B037A6913437B613B6923F0A0033B61CB
:10B45800BB681B013A6913433B61FB687A699A61CF
:10B46800FB683A691A6200BF1C37BD465DF8047B69
:10B47800704780B485B000AF786039607B689B689E
:10B48800FB60FB6823F07003FB603A68FB681343BA
:10B4980043F00703FB607B68FA689A6000BF1437C3
:10B4A800BD465DF8047B704780B487B000AFF86094
:10B4B800B9607A603B60FB689B687B617B6923F4B9
:10B4C8007F437B613B681A027B681A43BB6813435E
:10B4D8007A6913437B61FB687A699A6000BF1C37FD
:10B4E800BD465DF8047B704780B485B000AF7860D6
:10B4F80039607B6893F83C30012B01D102235AE074
:10B508007B68012283F83C207B68022283F83D2077
:10B518007B681B685B68FB607B681B689B68BB601B
:10B52800FB6823F07003FB603B681B68FA681343F1
:10B53800FB607B681B68FA685A607B681B68214A55
:10B54800934222D07B681B68B3F1804F1DD07B6883
:10B558001B681D4A934218D07B681B681B4A93429C
:10B5680013D07B681B681A4A93420ED07B681B680D
:10B57800184A934209D07B681B68174A934204D043
:10B588007B681B68154A93420CD1BB6823F0800383
:10B59800BB603B685B68BA681343BB607B681B6829
:10B5A800BA689A607B68012283F83D207B68002294
:10B5B80083F83C20002318461437BD465DF8047B09
:10B5C800704700BF00000140000400400008004030
:10B5D800000C0040000401400040014000180040F9
:10B5E80080B483B000AF786000BF0C37BD465DF80B
:10B5F800047B704780B483B000AF786000BF0C371D
:10B60800BD465DF8047B704780B58AB000AF7860AE
:10B618007B681B681B687B627B681B68DB683B6216
:10B628007B681B685B69FB610023BB6100237B614E
:10B638007B6A03F00F03BB61BB69002B0DD17B6AEA
:10B6480003F02003002B08D03B6A03F02003002BF3
:10B6580003D0786800F043FA7CE1BB69002B00F066
:10B66800B180FB6903F00103002B05D13B6A03F4A9
:10B678009073002B00F0A6807B6A03F00103002B77
:10B688000AD03B6A03F48073002B05D07B681B6CDF
:10B6980043F001027B681A647B6A03F00403002B01
:10B6A8000AD0FB6903F00103002B05D07B681B6CF3
:10B6B80043F002027B681A647B6A03F00203002BE2
:10B6C8000AD0FB6903F00103002B05D07B681B6CD3
:10B6D80043F004027B681A647B6A03F00803002BBA
:10B6E8000FD03B6A03F02003002B04D1FB6903F061
:10B6F8000103002B05D07B681B6C43F008027B68B4
:10B708001A647B681B6C002B00F01F817B6A03F0B6
:10B718002003002B07D03B6A03F02003002B02D044
:10B72800786800F0DCF97B681B685B6903F040030C
:10B73800402B0CBF01230023DBB27B617B681B6CB1
:10B7480003F00803002B02D17B69002B31D0786805
:10B7580000F01CF97B681B685B6903F04003402B11
:10B7680023D17B681B685A697B681B6822F04002FA
:10B778005A617B689B6B002B13D07B689B6B774A65
:10B788001A657B689B6B1846FDF7FDFD0346002B89
:10B7980016D07B689B6B1B6D7A68926B1046984736
:10B7A8000EE0786800F0DCF80AE0786800F0D8F875
:10B7B80006E0786800F0D4F87B6800221A64C4E0D8
:10B7C80000BFC2E07B681B6B012B40F0A2807B6A44
:10B7D80003F01003002B00F09C803B6A03F0100379
:10B7E800002B00F096800023FB607B681B681B68B9
:10B7F800FB607B681B685B68FB60FB687B681B6899
:10B808005B6903F04003402B4FD17B689B6B1B683F
:10B818005B683B823B8A002B00F099807B689B8D9C
:10B828003A8A9A4280F093807B683A8ADA857B6804
:10B838009B6BDB69B3F5807F2BD07B681B68DA686C
:10B848007B681B6822F48072DA607B681B685A691F
:10B858007B681B6822F001025A617B681B685A6981
:10B868007B681B6822F040025A617B68202283F8BB
:10B878003E207B6800221A637B681B68DA687B6855
:10B888001B6822F01002DA607B689B6B1846FDF794
:10B898000AFD7B689A8D7B68DB8D9BB2D31A9BB2BD
:10B8A8001946786800F066F851E07B689A8D7B68E5
:10B8B800DB8D9BB2D31A7B827B68DB8D9BB2002B1E
:10B8C80047D07B8A002B44D07B681B68DA687B688A
:10B8D8001B6822F49072DA607B681B685A697B687F
:10B8E8001B6822F001025A617B68202283F83E20FF
:10B8F8007B6800221A637B681B68DA687B681B68B0
:10B9080022F01002DA607B8A1946786800F032F873
:10B918001FE07B6A03F08003002B08D03B6A03F02A
:10B928008003002B03D0786800F071F812E07B6A7E
:10B9380003F04003002B0DD03B6A03F04003002BBB
:10B9480008D0786800F0B3F804E000BF02E000BF58
:10B9580000E000BF2837BD4680BD00BFEFB9000832
:10B9680080B483B000AF786000BF0C37BD465DF887
:10B97800047B704780B483B000AF78600B467B804F
:10B9880000BF0C37BD465DF8047B704780B483B0B8
:10B9980000AF78607B681B68DA687B681B6822F4F4
:10B9A8009072DA607B681B685A697B681B6822F0B2
:10B9B80001025A617B681B6B012B07D17B681B68EE
:10B9C800DA687B681B6822F01002DA607B68202244
:10B9D80083F83E207B6800221A6300BF0C37BD46FF
:10B9E8005DF8047B704780B584B000AF78607B68F1
:10B9F8009B6BFB60FB680022DA85FB680022DA8417
:10BA0800F868FFF7ADFF00BF1037BD4680BD80B4B2
:10BA180085B000AF78607B6893F83D30DBB2212BAE
:10BA28003ED17B689B68B3F5805F14D17B681B6946
:10BA3800002B10D17B681B6AFB60FB681B881A46C9
:10BA48007B681B68C2F308025A607B681B6A9A1CF1
:10BA58007B681A6208E07B681B6A591C7A68116265
:10BA68001A787B681B685A607B68DB8C9BB2013B49
:10BA78009BB27A681946D184002B0FD17B681B686A
:10BA8800DA687B681B6822F08002DA607B681B68D2
:10BA9800DA687B681B6842F04002DA60002300E045
:10BAA800022318461437BD465DF8047B704780B5FD
:10BAB80082B000AF78607B681B68DA687B681B68B7
:10BAC80022F04002DA607B68202283F83D20786803
:10BAD80006F096F9002318460837BD4680BD80B5A4
:10BAE80084B000AF78607B6893F83E30DBB2222BDD
:10BAF80040F087807B689B68B3F5805F17D17B68CF
:10BB08001B69002B13D10023FB607B689B6ABB6019
:10BB18007B681B685B689BB2C3F308039AB2BB6877
:10BB28001A807B689B6A9A1C7B689A6226E07B680D
:10BB38009B6AFB600023BB607B689B68B3F5805FF2
:10BB480007D07B689B68002B0AD17B681B69002B98
:10BB580006D17B681B685B68DAB2FB681A7008E07C
:10BB68007B681B685B68DBB203F07F03DAB2FB68B3
:10BB78001A707B689B6A5A1C7B689A627B68DB8DAB
:10BB88009BB2013B9BB27A681946D185002B36D10E
:10BB98007B681B68DA687B681B6822F02002DA6021
:10BBA8007B681B68DA687B681B6822F48072DA603D
:10BBB8007B681B685A697B681B6822F001025A611E
:10BBC8007B68202283F83E207B681B6B012B0ED1FB
:10BBD8007B681B68DA687B681B6822F01002DA60F1
:10BBE8007B689B8D19467868FFF7C4FE02E0786889
:10BBF80006F01EF97B6800221A63002302E0002386
:10BC080000E0022318461037BD4680BD80B485B0D9
:10BC180000AF786039600023FB603B681A687B6876
:10BC280053F82230FB60FA68204B1340FB603B68F6
:10BC38005A683B689B681A433B68DB681A433B6851
:10BC48001B691A433B685B691A433B689B691A4343
:10BC58003B68DB691A433B681B6A1A433B685B6AAB
:10BC68001A433B689B6A1A433B68DB6A1A433B6882
:10BC7800DB6B1A433B681B6B1343FA681343FB6087
:10BC88003B689B68082B03D1FB6843F04003FB60CB
:10BC98003B681A687B68F96843F822100023184645
:10BCA8001437BD465DF8047B704700BF8000F0FF85
:10BCB80080B487B000AFF860B9607A6000237B6118
:10BCC8007B685A1CFB6853F822307B617B6903F060
:10BCD80040437B61BB681A68BB685B681B011A43F9
:10BCE800BB689B681B021A43BB68DB681B041A43CA
:10BCF800BB681B69013B1B051A43BB685B69023BB8
:10BD08001B061A43BB689B6913437A6913437B611B
:10BD18007B685A1CFB68796943F82210002318468F
:10BD28001C37BD465DF8047B7047000080B487B0BF
:10BD380000AFF860B9607A603B6000237B613B68C4
:10BD4800B3F5804F22D1FB687A6853F822307B61C3
:10BD58007A69154B13407B61BB681A68BB685B68DE
:10BD68001B011A43BB689B681B021A43BB68DB684C
:10BD78001B041A43BB689B6913437A6913437B61AD
:10BD8800FB687A68796943F8221005E0FB687A68ED
:10BD98006FF0704143F82210002318461C37BD4647
:10BDA8005DF8047B704700BF0000F0CF80B400AF9F
:10BDB800FEE780B400AFFEE780B400AFFEE780B4D2
:10BDC80000AFFEE780B400AFFEE780B400AF00BF6D
:10BDD800BD465DF8047B704780B400AF00BFBD4628
:10BDE8005DF8047B704780B400AF00BFBD465DF8C6
:10BDF800047B704780B500AF044A137A43F001030F
:10BE08001372FCF7F5FB00BF80BD00BFA40500203E
:10BE180080B500AF0248FFF72FF800BF80BD00BF14
:10BE28000025002080B500AF044A137A43F00403CC
:10BE380013720348FFF720F800BF80BDA405002057
:10BE48002824002080B500AF044A137A43F0080381
:10BE580013720348FFF710F800BF80BDA405002047
:10BE68007024002080B500AF604A137A43F01003B5
:10BE780013725E4B9B8901339AB25C4B9A815B4B80
:10BE88009B89092B07D9594B00229A81574A137A63
:10BE980043F020031372554BDB8901339AB2534B9D
:10BEA800DA81524BDB89632B07D9504B0022DA81A8
:10BEB8004E4A137A43F0400313724C4B1B8A0133EA
:10BEC8009AB24A4B1A82494B1B8A072B0DD9474A0B
:10BED80092F8723E43F0100382F8723E434B002200
:10BEE80083F82A20414B07221A82404B5B8A013390
:10BEF8009AB23E4B5A823D4B5B8A072B0DD93B4A7F
:10BF080092F8723E43F0200382F8723E374B0022CB
:10BF180083F82B20354B07225A82344B9B8A0133F6
:10BF28009AB2324B9A82314B9B8A072B06D92F4BF8
:10BF3800002283F82C202D4B07229A822B4BDB8A78
:10BF480001339AB2294BDA82284BDB8A072B06D9B0
:10BF5800264B002283F82D20244B0722DA82234B1C
:10BF680093F8733E03F00103DBB2002B10D01F4B94
:10BF78001B8B01339AB21D4B1A831C4B1B8B142B42
:10BF880006D91A4A92F8733E43F0020382F8733EC8
:10BF9800174B1B7803F00103DBB2002B02D1134BC4
:10BFA80000225A83124B1B7803F00103DBB2002BEB
:10BFB80016D00E4B5B8B01339AB20C4B5A830B4B4A
:10BFC8005B8B022B0CD90A4A13786FF300031370AA
:10BFD800074A137843F002031370044B00225A8374
:10BFE8000448FEF749FF00BF80BD00BFA40500203C
:10BFF8005C250020B824002080B500AF0248FCF77B
:10C0080033FE00BF80BD00BFCC14002080B500AF58
:10C01800204B214A00212148FCF714FD204B002227
:10C028001A821F4A92F8723E6FF3041382F8723E26
:10C038001C4B5B7803F00103DBB2002B11D0184BCB
:10C0480093F8723E03F02003DBB2002B09D0154AA7
:10C05800137843F080031370124A53786FF3000388
:10C068005370104B1B7823F07F03DBB2002B08D0F2
:10C078000849094801F04EF9094B022283F82A20A1
:10C0880003E0074B032283F82A200448FCF7ECFD61
:10C0980000BF80BD6C14002050140020CC14002078
:10C0A800A40500206002002080B500AF1C4B1D4A8B
:10C0B80001211D48FCF7C6FC1A4B1B68882B08D0C9
:10C0C800184B1B68102B04D0164B1B68B3F5887FE0
:10C0D80004D11349134801F0FDF91BE0114B1B680B
:10C0E800822B07D00F4B1B68842B03D00D4B1B688A
:10C0F800862B04D10A490B4801F016FA0AE00B4BCB
:10C108001B7823F07F03DBB2002B03D004490548DA
:10C1180001F0D4F90448FCF7A7FD00BF80BD00BFBB
:10C128006C14002050140020CC1400206002002061
:10C1380080B500AF0248FCF797FD00BF80BD00BF87
:10C14800CC14002080B500AF0248FCF78DFD00BF7D
:10C1580080BD00BF9C14002080B500AF234B244A4B
:10C1680000212448FCF76EFC234B00225A82224A05
:10C1780092F8723E6FF3451382F8723E1F4B1B789C
:10C1880023F07F03DBB2002B11D01B4B93F8723ED8
:10C1980003F01003DBB2002B09D0184A537843F0A0
:10C1A80001035370154A13786FF3C7131370134BB9
:10C1B8005B7803F00103DBB2002B0DD00C4B1B683E
:10C1C800013B0B4A13600949094801F0A3F80A4BDF
:10C1D800022283F82B2003E0074B032283F82B204D
:10C1E8000448FCF741FD00BF80BD00BF800500206A
:10C1F800880500209C140020A4050020600200206F
:10C2080080B500AF1F4B204A01212048FCF71AFCDB
:10C218001D4B1B68892B09D01B4B1B68112B05D0A4
:10C22800194B1B6840F21112934209D1164B1B6837
:10C23800013B154A13601349134801F04BF91BE001
:10C24800114B1B68822B07D00F4B1B68842B03D024
:10C258000D4B1B68862B04D10A490B4801F064F981
:10C268000AE00B4B5B7803F00103DBB2002B03D031
:10C278000449054801F022F90448FCF7F5FC00BF21
:10C2880080BD00BF80050020880500209C14002088
:10C298006002002080B500AF0248FCF7E5FC00BF53
:10C2A80080BD00BF9C14002080B400AF134B5B69B5
:10C2B80003F48053002B0BD0114A92F8723E43F0DE
:10C2C800400382F8723E0D4B4FF480525A6110E0E1
:10C2D8000A4B5B6903F40053002B0AD0084A92F812
:10C2E800723E43F0800382F8723E044B4FF40052D2
:10C2F8005A6100BFBD465DF8047B7047003C0140B1
:10C30800A405002080B500AF0248FFF77DF900BF03
:10C3180080BD00BF6025002080B500AF00F070FC34
:10C3280000F0C6FC04F00EFD00BF80BD80B58AB0E9
:10C3380000AF3B4628220021184605F019FE0E23BF
:10C348007B62144B1B681A68124B1B6842F001028F
:10C358001A6000237B613B4619460E48FCF792FAA7
:10C3680001237B613B4619460A48FCF78BFA0223F6
:10C378007B613B4619460748FCF784FA054B1B6866
:10C388001A68044B1B6822F001021A6000BF2837A4
:10C39800BD4680BDCC14002080B58AB000AF3B46B6
:10C3A80028220021184605F0E3FD0E237B62144B7A
:10C3B8001B681A68124B1B6842F001021A600E23B0
:10C3C8007B613B4619460E48FCF75CFA0F237B61FC
:10C3D8003B4619460A48FCF755FA10237B613B4651
:10C3E80019460748FCF74EFA054B1B681A68044BB8
:10C3F8001B6822F001021A6000BF2837BD4680BDC5
:10C408009C14002080B500AF944B1B681A68934BAE
:10C418001B6842F001021A60914B5B790E2B00F207
:10C428008F8101A252F823F001C70008D5C5000882
:10C43800B9C600086DC4000849C7000845C500080A
:10C4480071C60008FDC4000849C700088DC500086A
:10C4580049C70008FDC4000849C70008B5C400085A
:10C468001DC600087F4B00225A617E4B01229A614B
:10C478007C4B0022DA617B4B4FF460621A60794B87
:10C4880000225A60774B00229A60764B0022DA60CD
:10C49800744B00221A61734B01221A62714B0E22EF
:10C4A8005A6270496D48FCF7EDF949E16D4B00227D
:10C4B8005A616C4B01229A616A4B0022DA61694B1E
:10C4C8004FF464621A60674B00225A60654B002281
:10C4D8009A60644B0022DA60624B00221A61614B59
:10C4E80001221A625F4B0E225A625E495B48FCF7D2
:10C4F800C9F925E15B4B00225A615A4B01229A6126
:10C50800584B0022DA61574B4FF478621A60554B4A
:10C5180000225A60534B00229A60524B0022DA6084
:10C52800504B00221A614F4B01221A624D4B0E22CA
:10C538005A624C494948FCF7A5F901E1494B0022E8
:10C548005A61484B01229A61464B0022DA61454BF9
:10C558004FF468621A60434B00225A60414B002234
:10C568009A60404B0022DA603E4B00221A613D4B34
:10C5780001221A623B4B0E225A623A493748FCF7AD
:10C5880081F9DDE0374B00225A61364B01229A616E
:10C59800344B0022DA61334B4FF46C621A60314B32
:10C5A80000225A602F4B00229A602E4B0022DA603C
:10C5B8002C4B00221A612B4B01221A62294B0E22A6
:10C5C8005A6228492548FCF75DF9B9E0254B002255
:10C5D8005A61244B01229A61224B0022DA61214BD5
:10C5E8004FF47C621A601F4B00225A601D4B0022D8
:10C5F8009A601C4B0022DA601A4B00221A61194B10
:10C6080001221A62174B0E225A6216491348FCF788
:10C6180039F995E0134B00225A61124B01229A61B5
:10C62800104B0022DA610F4B4FF480521A600D4B09
:10C6380000225A600B4B00229A600A4B0022DA60F3
:10C64800084B00221A61074B01221A62054B0E2281
:10C658005A6204490148FCF715F971E0CC1400202E
:10C66800A4050020741400205F4B00225A615E4B21
:10C6780001229A615C4B0022DA615B4B4FF47062D5
:10C688001A60594B00225A60574B00229A60564B49
:10C698000022DA60544B00221A61534B01221A62BD
:10C6A800514B0E225A6250495048FCF7EBF847E0CC
:10C6B8004D4B00225A614C4B01229A614A4B002291
:10C6C800DA61494B4FF474621A60474B00225A6092
:10C6D800454B00229A60444B0022DA60424B00220C
:10C6E8001A61414B01221A623F4B0E225A623E499F
:10C6F8003E48FCF7C7F823E03B4B00225A613A4B0F
:10C7080001229A61384B0022DA61374B4FF48A5282
:10C718001A60354B00225A60334B00229A60324B24
:10C728000022DA60304B00221A612F4B01221A6274
:10C738002D4B0E225A622C492C48FCF7A3F800BF57
:10C74800294B02225A61284B01229A61264B00226A
:10C75800DA61254B4FF488521A60234B4FF400726C
:10C768005A60214B00229A601F4B4FF40852DA603E
:10C778001D4B01221A611C4B01221A621A4B0E2210
:10C788005A6219491948FCF77DF8174B03225A6178
:10C79800154B01229A61144B0022DA61124B4FF4B7
:10C7A80084521A60104B4FF482525A600E4B4FF469
:10C7B80086529A600C4B0022DA600B4B01221A61F8
:10C7C800094B01221A62084B0E225A620649074891
:10C7D800FCF758F8054B1B681A68044B1B6822F0D5
:10C7E80001021A6000BF80BD74140020CC14002020
:10C7F80080B500AF944B1B681A68934B1B6842F0D6
:10C8080001021A60914B5B790E2B00F28F8101A215
:10C8180052F823F0EDCA0008C1C90008A5CA0008EB
:10C8280059C8000835CB000831C900085DCA00089E
:10C83800E9C8000835CB000879C9000835CB0008DD
:10C84800E9C8000835CB0008A1C8000809CA0008D3
:10C858007F4B0E225A617E4B01229A617C4B00224B
:10C86800DA617B4B4FF462621A60794B00225A609E
:10C87800774B00229A60764B0022DA60744B0022D4
:10C888001A61734B01221A62714B0E225A62704967
:10C898006D48FBF7F7FF49E16D4B0E225A616C4B6F
:10C8A80001229A616A4B0022DA61694B4FF4666291
:10C8B8001A60674B00225A60654B00229A60644BED
:10C8C8000022DA60624B00221A61614B01221A626F
:10C8D8005F4B0E225A625E495B48FBF7D3FF25E1A6
:10C8E8005B4B0E225A615A4B01229A61584B002227
:10C8F800DA61574B4FF47A621A60554B00225A603E
:10C90800534B00229A60524B0022DA60504B0022AF
:10C918001A614F4B01221A624D4B0E225A624C4942
:10C928004948FBF7AFFF01E1494B0E225A61484BDA
:10C9380001229A61464B0022DA61454B4FF46A6244
:10C948001A60434B00225A60414B00229A60404BC8
:10C958000022DA603E4B00221A613D4B01221A6226
:10C968003B4B0E225A623A493748FBF78BFFDDE012
:10C97800374B0E225A61364B01229A61344B002202
:10C98800DA61334B4FF46E621A60314B00225A6001
:10C998002F4B00229A602E4B0022DA602C4B00228B
:10C9A8001A612B4B01221A62294B0E225A6228491E
:10C9B8002548FBF767FFB9E0254B0E225A61244B47
:10C9C80001229A61224B0022DA61214B4FF47E62E8
:10C9D8001A601F4B00225A601D4B00229A601C4BA4
:10C9E8000022DA601A4B00221A61194B01221A62DE
:10C9F800174B0E225A6216491348FBF743FF95E07E
:10CA0800134B0E225A61124B01229A61104B0022DD
:10CA1800DA610F4B4FF481521A600D4B00225A60B5
:10CA28000B4B00229A600A4B0022DA60084B002266
:10CA38001A61074B01221A62054B0E225A620449F9
:10CA48000148FBF71FFF71E09C140020A40500209B
:10CA5800741400205F4B0E225A615E4B01229A61CA
:10CA68005C4B0022DA615B4B4FF472621A60594BDF
:10CA780000225A60574B00229A60564B0022DA6017
:10CA8800544B00221A61534B01221A62514B0E2259
:10CA98005A6250495048FBF7F5FE47E04D4B0E22CD
:10CAA8005A614C4B01229A614A4B0022DA61494B88
:10CAB8004FF476621A60474B00225A60454B0022B9
:10CAC8009A60444B0022DA60424B00221A61414BC3
:10CAD80001221A623F4B0E225A623E493E48FBF73A
:10CAE800D1FE23E03B4B0E225A613A4B01229A6158
:10CAF800384B0022DA61374B4FF48B521A60354BB2
:10CB080000225A60334B00229A60324B0022DA60CE
:10CB1800304B00221A612F4B01221A622D4B0E2234
:10CB28005A622C492D48FBF7ADFE00BF294B102255
:10CB38005A61284B01229A61264B0022DA61254B63
:10CB48004FF489521A60234B4FF408725A60214BF4
:10CB580000229A601F4B42F22022DA601D4B01220C
:10CB68001A611C4B01221A621A4B0E225A62194989
:10CB78001948FBF787FE174B11225A61154B012202
:10CB88009A61144B0022DA61124B4FF484521A60F6
:10CB9800104B4FF482525A600E4B4FF486529A60F3
:10CBA8000C4B0022DA600B4B01221A61094B01225F
:10CBB8001A62084B0E225A6206490748FBF762FEC2
:10CBC800054B1B681A68044B1B6822F001021A60A7
:10CBD80000BF80BD741400209C140020CC140020D9
:10CBE80080B500AFFFF70EFCFFF702FE00BF80BD67
:10CBF80080B500AFFFF79AFBFFF7CEFB00BF80BD03
:10CC080080B582B000AF00237B60264B1B6C254AA1
:10CC180043F000731364234B1B6C03F000737B60B9
:10CC28007B68214B214A1A601F4B0C225A601E4B0D
:10CC38004FF420221A611C4B4FF480125A611A4B90
:10CC48004FF00072DA60184B01225A76164B002218
:10CC58009A76154B00221A76134B0022DA76124B7D
:10CC680000221A77104B00229A600F4B01225A7744
:10CC78000D48FBF701FD0346002B01D002F055FBE0
:10CC8800094B1B681A68084B1B6822F001021A60DE
:10CC9800FFF7B8FB044B1B6813225A6100BF083723
:10CCA800BD4680BD00380240CC140020006400401E
:10CCB80080B582B000AF00237B60264B1B6C254AF1
:10CCC80043F080631364234B1B6C03F080637B6029
:10CCD8007B68214B214A1A601F4B0C225A601E4B5D
:10CCE8004FF420221A611C4B4FF480325A611A4BC0
:10CCF8004FF00072DA60184B01225A76164B002268
:10CD08009A76154B00221A76134B0022DA76124BCC
:10CD180000221A77104B00229A600F4B01225A7793
:10CD28000D48FBF7A9FC0346002B01D002F0FDFAE1
:10CD3800094B1B681A68084B1B6822F001021A602D
:10CD4800FFF756FD044B1B6813225A6100BF0837D2
:10CD5800BD4680BD003802409C1400200068004099
:10CD680080B483B000AFAE4B1B689B687B607B6868
:10CD780003F08063002B6CD0AA4B93F9383719461F
:10CD8800A84A0B461B015B1A9B00134430331B68EF
:10CD98005905A44B93F938371846A24A03461B0194
:10CDA8001B1A9B0013443C331A689D4B1B680A43AB
:10CDB800C3F880219B4B93F938371846984B1A686B
:10CDC800984903461B011B1A9B000B4464331B68DC
:10CDD800C2F88831934B93F938371846904B1A6844
:10CDE800904903461B011B1A9B000B4468331B68C0
:10CDF800C2F88C318B4B93F938371846884B1A6830
:10CE0800884903461B011B1A9B000B4440331B68CF
:10CE1800C2F88431824B1B68D3F88021804B1B6891
:10CE280042F00102C3F880217E4B93F93837DBB218
:10CE38000133DBB25AB27B4B83F83827794B93F92D
:10CE480038371D2B40F3E680764B002283F83827CD
:10CE5800E0E07B6803F00063002B6BD0714B93F923
:10CE6800383719466F4A0B461B015B1A9B0013445F
:10CE780030331B6859056B4B93F938371846694AA4
:10CE880003461B011B1A9B0013443C331A68644B6E
:10CE98001B680A43C3F89021624B93F93837184648
:10CEA8005F4B1A685F4903461B011B1A9B000B4422
:10CEB80064331B68C2F898315A4B93F938371846CF
:10CEC800574B1A68574903461B011B1A9B000B4412
:10CED80068331B68C2F89C31524B93F938371846AF
:10CEE8004F4B1A684F4903461B011B1A9B000B4402
:10CEF80040331B68C2F89431494B1B68D3F8902122
:10CF0800474B1B6842F00102C3F89021454B93F947
:10CF18003837DBB20133DBB25AB2424B83F83827D9
:10CF2800404B93F938371D2B74DD3E4B002283F8B4
:10CF380038276FE07B6803F08053002B6AD0394BA9
:10CF480093F938371946374A0B461B015B1A9B0081
:10CF5800134430331B685905324B93F93837184658
:10CF6800304A03461B011B1A9B0013443C331A68C2
:10CF78002B4B1B680A43C3F8A0212A4B93F9383777
:10CF88001846274B1A68274903461B011B1A9B00A2
:10CF98000B4464331B68C2F8A831224B93F9383725
:10CFA80018461F4B1A681F4903461B011B1A9B0092
:10CFB8000B4468331B68C2F8AC311A4B93F9383705
:10CFC8001846174B1A68174903461B011B1A9B0082
:10CFD8000B4440331B68C2F8A431114B1B68D3F8CB
:10CFE800A0210F4B1B6842F00102C3F8A0210D4B92
:10CFF80093F93837DBB20133DBB25AB2094B83F805
:10D008003827084B93F938371D2B03DD054B0022D1
:10D0180083F8382700BF0C37BD465DF8047B70479E
:10D02800CC140020A405002080B400AFB74B1B68C7
:10D038009B6803F08063B3F1806F71D1B44B93F9AF
:10D04800483E1946B24A0B461B015B1A9B00134423
:10D0580003F5E8631B685905AD4B93F9483E18463C
:10D06800AB4A03461B011B1A9B00134403F24C7383
:10D078001A68A64B1B680A43C3F88021A44B93F98E
:10D08800483E1846A14B1A68A14903461B011B1AC2
:10D098009B000B4403F274731B68C2F888319C4BE5
:10D0A80093F9483E1846994B1A68994903461B015B
:10D0B8001B1A9B000B4403F5EF631B68C2F88C3105
:10D0C800934B93F9483E1846904B1A68904903468B
:10D0D8001B011B1A9B000B4403F5EA631B68C2F88B
:10D0E80084318A4B1B68D3F88021884B1B6842F037
:10D0F8000102C3F88021864B93F9483EDBB2013325
:10D10800DBB25AB2824B83F8482E814B93F9483EE2
:10D118001D2B40F3F6807E4B002283F8482EF0E06A
:10D128007A4B1B689B6803F00063B3F1006F70D102
:10D13800774B93F9483E1946754A0B461B015B1A13
:10D148009B00134403F5E8631B685905704B93F97A
:10D15800483E18466E4A03461B011B1A9B0013449F
:10D1680003F24C731A68694B1B680A43C3F8902191
:10D17800674B93F9483E1846644B1A68644903465E
:10D188001B011B1A9B000B4403F274731B68C2F843
:10D1980098315F4B93F9483E18465C4B1A685C49D6
:10D1A80003461B011B1A9B000B4403F5EF631B6826
:10D1B800C2F89C31564B93F9483E1846534B1A68AF
:10D1C800534903461B011B1A9B000B4403F5EA63F2
:10D1D8001B68C2F894314D4B1B68D3F890214B4B18
:10D1E8001B6842F00102C3F89021494B93F9483E6D
:10D1F800DBB20133DBB25AB2454B83F8482E444BBD
:10D2080093F9483E1D2B7CDD414B002283F8482EC4
:10D2180077E03E4B1B689B6803F08053B3F1805F57
:10D228006FD13B4B93F9483E1946394A0B461B01CF
:10D238005B1A9B00134403F5E8631B685905344BDC
:10D2480093F9483E1846324A03461B011B1A9B00B5
:10D25800134403F24C731A682C4B1B680A43C3F837
:10D26800A0212B4B93F9483E1846284B1A682849A9
:10D2780003461B011B1A9B000B4403F274731B68C3
:10D28800C2F8A831224B93F9483E18461F4B1A683A
:10D298001F4903461B011B1A9B000B4403F5EF6350
:10D2A8001B68C2F8AC311A4B93F9483E1846174B25
:10D2B8001A68174903461B011B1A9B000B4403F508
:10D2C800EA631B68C2F8A431104B1B68D3F8A0218D
:10D2D8000E4B1B6842F00102C3F8A0210C4B93F9D6
:10D2E800483EDBB20133DBB25AB2094B83F8482E11
:10D2F800074B93F9483E1D2B03DD054B002283F8AD
:10D30800482E00BFBD465DF8047B70479C14002082
:10D31800A405002080B483B000AF786039607B68D2
:10D328001B68703B1A2B00F2C08001A252F823F050
:10D33800A5D30008B3D40008A5D30008B3D40008C7
:10D34800A5D30008B3D40008A5D30008B3D40008B7
:10D35800A5D30008B3D40008A5D30008B3D40008A7
:10D36800FFD30008B3D4000877D40008B3D400086A
:10D3780077D40008B3D40008B3D40008B3D40008A5
:10D38800B3D40008B3D40008B3D40008B3D4000859
:10D39800B3D40008B3D4000877D400083B681B78DE
:10D3A8001AB23B6801331B781B021BB213431BB232
:10D3B8009AB2414BA3F8D0213B6802331B781AB2CA
:10D3C8003B6803331B781B021BB213431BB29AB290
:10D3D800394BA3F8D2213B6804331B781AB23B6857
:10D3E80005331B781B021BB213431BB29AB2324B94
:10D3F800A3F8D4215AE03B681B781AB23B68013382
:10D408001B781B021BB213431BB29AB22A4BA3F818
:10D41800D0213B6802331B781AB23B6803331B7870
:10D428001B021BB213431BB29AB2234BA3F8D2219F
:10D438003B6804331B781AB23B6805331B781B0220
:10D448001BB213431BB29AB21B4BA3F8D4213B68FF
:10D4580006331B781AB23B6807331B781B021BB2D2
:10D4680013431BB29AB2144BA3F8D6211EE03B68B3
:10D478001B781AB23B6801331B781B021BB213439B
:10D488001BB29AB20C4BA3F8D0213B6802331B782D
:10D498001AB23B6803331B781B021BB213431BB23F
:10D4A8009AB2054BA3F8D22100E000BF00BF0C37A9
:10D4B800BD465DF8047B70476002002080B483B0ED
:10D4C80000AF7860396000BF0C37BD465DF8047B5B
:10D4D8007047000080B483B000AF786039607B6823
:10D4E8001B68B3F5887F11D0B3F5887F10D8102B4F
:10D4F80010D0882B0CD13B681A780A4B83F8542E2D
:10D508003B685A78074B83F8552E04E000BF02E0C9
:10D5180000BF00E000BF00BF0C37BD465DF8047BCC
:10D52800704700BFA405002080B584B000AF7860C4
:10D5380039600023FB607B681B68862B00F0EE8057
:10D54800862B00F27281822B02D0842B7DD06CE175
:10D558003B685A78AC4B5B799A4240F05381AB4BAD
:10D568004FF080521A60A84B022283F82820A64B5D
:10D5780000221A83A44A92F8733E43F0010382F80A
:10D58800733EA14A92F8723E6FF3000382F8723E2E
:10D598009D4A92F8733E6FF3820382F8733E3B68AC
:10D5A8001A78994B83F8562E3B685A88964BA3F8FD
:10D5B800582E3B685B68944AC2F8603E924B4FF61F
:10D5C800FF72A3F85A2E904B4FF0FF32C3F8642E27
:10D5D8008D4B4FF6FF72A3F86A2E8B4B93F8563E8D
:10D5E8009AB2894B5B889A4206D0874BD3F8603E43
:10D5F800184603F029F825E0844B1B681A1D834957
:10D608000A60834A12681A60804B1B681A1D7F499A
:10D618000A607F4A52681A607C4B1B681A1D7B4956
:10D628000A60794AD2F8602E1A60784B1A68764BED
:10D63800D3F8603EDB001344764A136000210020D3
:10D6480000F028F9FFF7D4FADCE06F4B93F8733E4B
:10D6580003F00103DBB2002B00F0E4806A4B93F87F
:10D66800563E9AB2684B5B889A424ED1664B00226E
:10D678001A83654B0022C3F86C2E3B685B68624ACC
:10D68800C2F85C3E604B4FF6FF72A3F8682E5E4B03
:10D69800D3F8642E3B681B689A4227D05D4B1B6801
:10D6A8005D4A1360594B1B683A6812681A60574BF9
:10D6B8001B680433544AD2F85C2E1A603B681B6816
:10D6C800514AC2F8643E504BD3F8603E013B4E4A83
:10D6D800C2F8603E4C4BB3F85A2E4B4BA3F86A2E57
:10D6E8004A4B1B680833494A136009E04A4B1B68D8
:10D6F800484A1360444BB3F86A2E434BA3F85A2E9A
:10D708000021012000F0C6F88CE03B681A683B68ED
:10D718005B681946104602F0C1FF83E03A4B93F864
:10D72800733E03F00103DBB2002B7DD0364B0022A1
:10D738001A83354B93F8563E9AB2334B5B889A421C
:10D7480059D10023FB6052E02F4BD3F86C2E2E4B9F
:10D75800D3F85C3E9A4253D23A68FB6813441B786C
:10D7680019462E4804F076FB3A68FB6813441B7888
:10D7780019462B4804F06EFB264B1B685A1C25499A
:10D788000A603968FA680A4412781A701E4BD3F88E
:10D798006C3E01331C4AC2F86C3E1B4BD3F86C2E0E
:10D7A800194BD3F85C3E9A421ED1174BB3F8683E2A
:10D7B8001946022000F06EF8134BD3F8603E002B98
:10D7C80012D1114BB3F85A2E0F4BB3F8583E9A4268
:10D7D8000AD10021032000F05DF80B4A92F8733E4D
:10D7E80043F0040382F8733EFB680133FB60FB6877
:10D7F800072BA9DD18E03B68184602F077FF13E015
:10D8080000BF11E000BF10E0A40500203002002096
:10D81800A01F01083402002038020020FE13002057
:10D828000C14002000BF00E000BF00BF1037BD4649
:10D8380080BD00BF80B584B000AF78603960144BFC
:10D8480008221A61124B00225A60114B00229A607A
:10D858000F4B0022DA600E4B40F2EA221A607B6816
:10D86800BB603B68FB6007F108031946084800F0F5
:10D8780041F807F108031946054800F0B5F8FFF725
:10D888006FFAFFF7D1FB00BF1037BD4680BD00BF60
:10D898004015002080B584B000AF03463960FB8096
:10D8A800134B08221A61124B00225A60104B0022B7
:10D8B8009A600F4B0022DA600D4B4FF43A721A60EF
:10D8C800FB883B813B68FB6007F108031946084861
:10D8D80000F010F807F108031946054800F084F82D
:10D8E800FFF73EFAFFF7A0FB00BF1037BD4680BD2B
:10D8F8004015002080B586B000AF78603960394B9C
:10D9080093F939371A4613461B019B1A9B0030338B
:10D91800344A134418227968184604F01BFB314B2B
:10D9280093F939371A4613461B019B1A9B0060333B
:10D938002C4A1344043308223968184604F00AFBB9
:10D94800284B93F939371946264A0B461B015B1AAF
:10D958009B00134464331B68224A92F93927104606
:10D96800FB60FB685BBABB60BA681E4903461B01D3
:10D978001B1A9B000B4464331A601A4B93F939370E
:10D988001946184A0B461B015B1A9B00134468335F
:10D998001B68144A92F9392710467B617B695BBA88
:10D9A8003B613A690F4903461B011B1A9B000B4454
:10D9B80068331A600B4B93F93937DBB20133DBB2AA
:10D9C8005AB2084B83F83927064B93F939371D2B80
:10D9D80003DD044B002283F8392700BF1837BD4602
:10D9E80080BD00BFA405002080B586B000AF786078
:10D9F80039603C4B93F9493E1A4613461B019B1A62
:10DA08009B0003F5E863374A1344182279681846DF
:10DA180004F0A0FA334B93F9493E1A4613461B010A
:10DA28009B1A9B0003F5EE632E4A13440433082225
:10DA38003968184604F08EFA2A4B93F9493E19467C
:10DA4800284A0B461B015B1A9B00134403F27473AC
:10DA58001B68244A92F9492E1046FB60FB685BBAA2
:10DA6800BB60BA681F4903461B011B1A9B000B4485
:10DA780003F274731A601B4B93F9493E1946194A0D
:10DA88000B461B015B1A9B00134403F5EF631B68ED
:10DA9800144A92F9492E10467B617B695BBA3B6157
:10DAA8003A69104903461B011B1A9B000B4403F5F6
:10DAB800EF631A600B4B93F9493EDBB20133DBB2DB
:10DAC8005AB2084B83F8492E064B93F9493E1D2B51
