:020000040800F2
:10800000000002209901010811D2000817D20008CF
:108010001DD2000823D2000829D200080000000069
:108020000000000000000000000000002FD2000847
:108030003DD20008000000004BD2000859D20008D1
:10804000E9010108E9010108E9010108E901010864
:1080500000000000E9010108E9010108E901010847
:10806000E9010108E9010108E9010108E901010844
:10807000E9010108E9010108E9010108E901010834
:10808000E9010108E901010875D20008B9D3000827
:10809000CDD3000809D4000839D40008E90101084B
:1080A000E9010108B1D20008E90101089DD20008E8
:1080B000C5D20008E9D2000809D30008E901010887
:1080C000E9010108E9010108E9010108E9010108E4
:1080D000E9010108E901010889D20008E901010864
:1080E000E9010108E9010108E9010108E9010108C4
:1080F000E9010108E9010108E9010108E9010108B4
:10810000E9010108E901010829D30008E901010892
:10811000E9010108E901010849D30008E901010862
:10812000E5D10008E9010108E9010108E9010108B8
:10813000E9010108E9010108E9010108E901010873
:10814000E9010108E9010108E9010108E901010863
:10815000E9010108E9010108E9010108E901010853
:10816000E9010108E9010108E9010108E901010843
:10817000E9010108E9010108E9010108E901010833
:10818000E9010108E9010108000000000000000009
:1081900000000000000000000000000000000000DF
:0881A000E9010108E9010108F1
:1081B00010B5054C237833B9044B13B10448AFF321
:1081C00000800123237010BDDC03002000000000AC
:1081D0009C2F010808B5034B1BB103490348AFF3BB
:1081E000008008BD00000000E00300209C2F010873
:1081F000034613F8012B002AFBD1181A01387047E7
:1082000001F0FF01102A2BDB10F0070F08D010F847
:10821000013B013A8B422DD010F0070F42B3F6D14B
:10822000F0B441EA012141EA014122F007047FF064
:1082300000070023F0E80256083C85EA010586EABB
:10824000010685FA47F5A3FA87F586FA47F6A5FAF7
:1082500087F68EB9EED1F0BC01F0FF0102F0070203
:1082600032B110F8013B013A83EA010313B1F8D1AE
:108270000020704701387047002D06BF354603388F
:10828000073815F0010F07D1013015F4807F02BFC8
:10829000013015F4C03F0130F0BC0138704700BF19
:1082A00081F0004102E000BF83F0004330B54FEAA7
:1082B00041044FEA430594EA050F08BF90EA020F14
:1082C0001FBF54EA000C55EA020C7FEA645C7FEAA7
:1082D000655C00F0E2804FEA5454D4EB5555B8BFCA
:1082E0006D420CDD2C4480EA020281EA030382EA3B
:1082F000000083EA010180EA020281EA0303362DCD
:1083000088BF30BD11F0004F4FEA01314FF4801C9F
:108310004CEA113102D0404261EB410113F0004FB1
:108320004FEA03334CEA133302D0524263EB430368
:1083300094EA050F00F0A780A4F10104D5F1200E06
:108340000DDB02FA0EFC22FA05F2801841F1000161
:1083500003FA0EF2801843FA05F359410EE0A5F135
:1083600020050EF1200E012A03FA0EFC28BF4CF066
:10837000020C43FA05F3C01851EBE37101F000451C
:1083800007D54FF0000EDCF1000C7EEB00006EEB29
:108390000101B1F5801F1BD3B1F5001F0CD34908B3
:1083A0005FEA30004FEA3C0C04F101044FEA44520A
:1083B00012F5800F80F09A80BCF1004F08BF5FEA91
:1083C000500C50F1000041EB045141EA050130BD71
:1083D0005FEA4C0C404141EB0101013C28BFB1F583
:1083E000801FE9D291F0000F04BF01460020B1FACE
:1083F00081F308BF2033A3F10B03B3F120020CDAA1
:108400000C3208DD02F1140CC2F10C0201FA0CF07E
:1084100021FA02F10CE002F11402D8BFC2F1200CE3
:1084200001FA02F120FA0CFCDCBF41EA0C01904099
:10843000E41AA2BF01EB0451294330BD6FEA0404E2
:108440001F3C1CDA0C340EDC04F11404C4F12002CD
:1084500020FA04F001FA02F340EA030021FA04F3DF
:1084600045EA030130BDC4F10C04C4F1200220FA36
:1084700002F001FA04F340EA0300294630BD21FA74
:1084800004F0294630BD94F0000F83F4801306BF3A
:1084900081F480110134013D4EE77FEA645C18BF2E
:1084A0007FEA655C29D094EA050F08BF90EA020FC5
:1084B00005D054EA000C04BF1946104630BD91EABD
:1084C000030F1EBF0021002030BD5FEA545C05D1C0
:1084D0004000494128BF41F0004130BD14F58004FF
:1084E0003CBF01F5801130BD01F0004545F0FE4173
:1084F00041F470014FF0000030BD7FEA645C1ABFA8
:10850000194610467FEA655C1CBF0B46024650EADE
:10851000013406BF52EA033591EA030F41F400210A
:1085200030BD00BF90F0000F04BF0021704730B590
:108530004FF4806404F132044FF000054FF0000165
:1085400050E700BF90F0000F04BF0021704730B526
:108550004FF4806404F1320410F0004548BF4042FB
:108560004FF000013EE700BF42004FEAE2014FEA50
:1085700031014FEA02701FBF12F07F4393F07F4F2B
:1085800081F06051704732F07F4208BF704793F02E
:108590007F4F04BF41F40021704730B54FF4607441
:1085A00001F0004521F000411CE700BF50EA010244
:1085B00008BF704730B54FF000050AE050EA0102ED
:1085C00008BF704730B511F0004502D5404261EB5D
:1085D00041014FF4806404F132045FEA915C3FF49E
:1085E000D8AE4FF003025FEADC0C18BF03325FEA3B
:1085F000DC0C18BF033202EBDC02C2F1200300FAEC
:1086000003FC20FA02F001FA03FE40EA0E0021FA10
:1086100002F11444BDE600BF70B54FF0FF0C4CF4FE
:10862000E06C1CEA11541DBF1CEA135594EA0C0FB0
:1086300095EA0C0F00F0DEF82C4481EA030621EAEB
:108640004C5123EA4C5350EA013518BF52EA033526
:1086500041F4801143F4801338D0A0FB02CE4FF0D8
:108660000005E1FB02E506F00042E0FB03E54FF008
:108670000006E1FB03569CF0000F18BF4EF0010E00
:10868000A4F1FF04B6F5007F64F5407404D25FEAFC
:108690004E0E6D4146EB060642EAC62141EA5551AF
:1086A0004FEAC52040EA5E504FEACE2EB4F1FD0CF1
:1086B00088BFBCF5E06F1ED8BEF1004F08BF5FEA6F
:1086C000500E50F1000041EB045170BD06F0004621
:1086D00046EA010140EA020081EA0301B4EB5C04CE
:1086E000C2BFD4EB0C0541EA045170BD41F48011C6
:1086F0004FF0000E013C00F3AB8014F1360FDEBFEB
:10870000002001F0004170BDC4F10004203C35DAC6
:108710000C341BDC04F11404C4F1200500FA05F349
:1087200020FA04F001FA05F240EA020001F00042EA
:1087300021F0004110EBD37021FA04F642EB060160
:108740005EEA430E08BF20EAD37070BDC4F10C048A
:10875000C4F1200500FA04F320FA05F001FA04F24E
:1087600040EA020001F0004110EBD37041F100013A
:108770005EEA430E08BF20EAD37070BDC4F1200545
:1087800000FA05F24EEA020E20FA04F301FA05F2AD
:1087900043EA020321FA04F001F0004121FA04F255
:1087A00020EA020000EBD3705EEA430E08BF20EA25
:1087B000D37070BD94F0000F0FD101F0004640005F
:1087C00041EB010111F4801F08BF013CF7D041EAE1
:1087D000060195F0000F18BF704703F000465200E5
:1087E00043EB030313F4801F08BF013DF7D043EAB6
:1087F0000603704794EA0C0F0CEA135518BF95EA6C
:108800000C0F0CD050EA410618BF52EA4306D1D1F2
:1088100081EA030101F000414FF0000070BD50EA11
:10882000410606BF1046194652EA430619D094EA9B
:108830000C0F02D150EA013613D195EA0C0F05D185
:1088400052EA03361CBF104619460AD181EA0301D9
:1088500001F0004141F0FE4141F470014FF0000091
:1088600070BD41F0FE4141F4780170BD70B54FF02C
:10887000FF0C4CF4E06C1CEA11541DBF1CEA1355AC
:1088800094EA0C0F95EA0C0F00F0A7F8A4EB05048E
:1088900081EA030E52EA03354FEA013100F0888085
:1088A0004FEA03334FF0805545EA131343EA12634E
:1088B0004FEA022245EA111545EA10654FEA002603
:1088C0000EF000419D4208BF964244F1FD0404F5BC
:1088D000407402D25B084FEA3202B61A65EB030518
:1088E0005B084FEA32024FF480104FF4002CB6EBD5
:1088F000020E75EB030E22BFB61A754640EA0C0055
:108900005B084FEA3202B6EB020E75EB030E22BF94
:10891000B61A754640EA5C005B084FEA3202B6EBD5
:10892000020E75EB030E22BFB61A754640EA9C0094
:108930005B084FEA3202B6EB020E75EB030E22BF64
:10894000B61A754640EADC0055EA060E18D04FEA22
:10895000051545EA16754FEA06164FEAC30343EAC2
:1089600052734FEAC2025FEA1C1CC0D111F4801F8F
:108970000BD141EA00014FF000004FF0004CB6E788
:1089800011F4801F04BF01430020B4F1FD0C88BF27
:10899000BCF5E06F3FF6AFAEB5EB030C04BFB6EB32
:1089A000020C5FEA500C50F1000041EB045170BD25
:1089B0000EF0004E4EEA113114EB5C04C2BFD4EB52
:1089C0000C0541EA045170BD41F480114FF0000ED6
:1089D000013C90E645EA060E8DE60CEA135594EA52
:1089E0000C0F08BF95EA0C0F3FF43BAF94EA0C0F55
:1089F0000AD150EA01347FF434AF95EA0C0F7FF4CA
:108A000025AF104619462CE795EA0C0F06D152EA1D
:108A100003353FF4FDAE1046194622E750EA410601
:108A200018BF52EA43067FF4C5AE50EA41047FF412
:108A30000DAF52EA43057FF4EBAE12E74FF0FF3C77
:108A400006E000BF4FF0010C02E000BF4FF0010C48
:108A50004DF804CD4FEA410C7FEA6C5C4FEA430CC1
:108A600018BF7FEA6C5C1BD001B050EA410C0CBF10
:108A700052EA430C91EA030F02BF90EA020F002072
:108A8000704710F1000F91EA030F58BF994208BFD9
:108A900090422CBFD8176FEAE37040F00100704796
:108AA0004FEA410C7FEA6C5C02D150EA013C07D1ED
:108AB0004FEA430C7FEA6C5CD6D152EA033CD3D038
:108AC0005DF8040B704700BF8446104662468C4632
:108AD0001946634600E000BF01B5FFF7B7FF002865
:108AE00048BF10F1000F01BD4DF808EDFFF7F4FF8E
:108AF0000CBF012000205DF808FB00BF4DF808ED19
:108B0000FFF7EAFF34BF012000205DF808FB00BF3B
:108B10004DF808EDFFF7E0FF94BF012000205DF85D
:108B200008FB00BF4DF808EDFFF7CEFF94BF012012
:108B300000205DF808FB00BF4DF808EDFFF7C4FF0B
:108B400034BF012000205DF808FB00BF4FEA410C54
:108B50007FEA6C5C02D150EA013C0AD14FEA430C37
:108B60007FEA6C5C02D152EA033C02D14FF0000074
:108B700070474FF0010070474FEA410212F50012B2
:108B800015D211D56FF47873B3EB625212D94FEA54
:108B9000C12343F0004343EA505311F0004F23FA3E
:108BA00002F018BF404270474FF00000704750EA93
:108BB000013005D111F0004008BF6FF00040704750
:108BC0004FF00000704700BF53B94AB9002908BFF1
:108BD00000281CBF4FF0FF314FF0FF3000F06EB99E
:108BE000ADF1080C6DE904CE00F006F8DDF804E004
:108BF000DDE9022304B070472DE9F047089D0446E3
:108C00008C46002B40F083808A42174647D9B2FA3F
:108C100082F242B1C2F1200024FA00F09140974064
:108C200040EA010C94404FEA1748230CBCFBF8F6CD
:108C30001FFA87FE08FB16C143EA014306FB0EF14B
:108C4000994209D9FB1806F1FF3080F01981994249
:108C500040F21681023E3B445B1AA4B2B3FBF8F02B
:108C600008FB103344EA034400FB0EFEA64509D975
:108C70003C1900F1FF3380F00581A64540F20281E6
:108C800002383C4440EA0640A4EB0E0400261DB125
:108C9000D4400023C5E900433146BDE8F08702B95E
:108CA000FFDEB2FA82F2002A50D1CB1B4FEA174EF8
:108CB0001FFA87F80126B3FBFEFC210C0EFB1C33C8
:108CC00041EA034108FB0CF38B4207D979180CF1F8
:108CD000FF3002D28B4200F2E9808446C91AA3B267
:108CE000B1FBFEF00EFB101143EA014408FB00F853
:108CF000A04507D93C1900F1FF3302D2A04500F28C
:108D0000D9801846A4EB080440EA0C40BFE78B4228
:108D100009D9002D00F0B1800026C5E900013046D8
:108D20003146BDE8F087B3FA83F6002E4AD18B4274
:108D300002D3824200F2B880841A61EB0301012061
:108D40008C46002DA8D0C5E9004CA5E7C2F1200350
:108D500020FA03F6974001FA02F04FEA174ED94085
:108D60003043030CB1FBFEF61FFA87F80EFB161119
:108D700043EA014306FB08F1994204FA02F409D9D7
:108D8000FB1806F1FF3C80F08D80994240F28A800A
:108D9000023E3B445B1A81B2B3FBFEF00EFB103384
:108DA00041EA034100FB08F38B4207D9791800F12F
:108DB000FF3C73D28B4271D902383944CB1A40EA56
:108DC000064678E7C6F1200C03FA06F422FA0CF303
:108DD0001C4320FA0CF701FA06F34FEA144E21FA6D
:108DE0000CF11F433B0CB1FBFEF91FFA84F80EFB9C
:108DF000191143EA014109FB08FA8A4502FA06F211
:108E000000FA06F308D9611809F1FF3048D28A4503
:108E100046D9A9F102092144A1EB0A01BFB2B1FB75
:108E2000FEF00EFB101147EA014700FB08F8B845B9
:108E300007D9E71900F1FF312ED2B8452CD90238F5
:108E4000274440EA0940A7EB0807A0FB02894F45E9
:108E5000C64649461AD317D05DB1B3EB0E0267EB95
:108E6000010707FA0CFCF2404CEA0202F740C5E9A0
:108E7000002700263146BDE8F0872E4628460BE73E
:108E80000646E9E61846FDE64345E5D2B8EB020E94
:108E900069EB04010138DFE70846D2E760468DE759
:108EA0008146B9E7664675E730464AE7ACF1020C01
:108EB000394413E702383C4424E700BF704700BF41
:108EC00080B500AF0E4B1B680D4A43F4007313606E
:108ED0000B4B1B680A4A43F480631360084B1B6802
:108EE000074A43F480731360032001F0F9FB0F205D
:108EF00000F042F800F032F80023184680BD00BFB1
:108F0000003C024080B500AF134B4FF0FF321A62B5
:108F1000114B00221A62104B4FF0FF325A620E4B77
:108F200000225A620C4B4FF0FF321A610A4B0022AA
:108F30001A61094B4FF0FF325A61074B00225A6108
:108F4000054B4FF0FF329A61034B00229A6100F00B
:108F50000CF80023184680BD0038024080B400AFF2
:108F600000BFBD465DF8047B704780B400AF00BF12
:108F7000BD465DF8047B704780B582B000AF786075
:108F8000124B1A68124B1B7819464FF47A73B3FBD5
:108F9000F1F3B2FBF3F3184601F0C9FB0346002BD3
:108FA00001D001230EE07B680F2B0AD800227968DC
:108FB0004FF0FF3001F09FFB064A7B6813600023EF
:108FC00000E0012318460837BD4680BD0802002096
:108FD000040000200000002080B400AF064B1B7886
:108FE0001A46064B1B681344044A136000BFBD4673
:108FF0005DF8047B704700BF04000020840400205B
:1090000080B400AF034B1B681846BD465DF8047B77
:10901000704700BF8404002080B584B000AF786042
:10902000FFF7EEFFB8607B68FB60FB68B3F1FF3FC2
:1090300005D00A4B1B781A46FB681344FB6000BF3F
:10904000FFF7DEFF0246BB68D31AFA689A42F7D8E8
:1090500000BF00BF1037BD4680BD00BF0400002028
:1090600080B584B000AF78600023FB737B68002B71
:1090700001D1012333E07B681B6C002B09D1786898
:1090800004F06CF87B6800225A647B68002283F845
:109090003C207B681B6C03F01003002B18D17B680D
:1090A0001B6C23F4885323F0020343F002027B6815
:1090B0001A64786800F0A8FB7B6800225A647B6819
:1090C0001B6C23F0030343F001027B681A6401E088
:1090D0000123FB737B68002283F83C20FB7B18464E
:1090E0001037BD4680BD80B584B000AF78600023E6
:1090F000FB600023BB607B681B681B6803F00203F6
:10910000022B0CBF01230023DBB2FB607B681B68D2
:109110005B6803F02003202B0CBF01230023DBB28C
:10912000BB60FB68002B49D0BB68002B46D07B6836
:109130001B6C03F01003002B05D17B681B6C43F400
:1091400000727B681A647B681B689B6803F040535D
:10915000002B2BD17B681B7E002B27D17B681B68E3
:10916000DB6A03F47003002B06D07B681B689B68E6
:1091700003F48063002B19D17B681B685A687B68F5
:109180001B6822F020025A607B681B6C23F48072FB
:109190007B681A647B681B6C03F48053002B05D139
:1091A0007B681B6C43F001027B681A64786804F0EA
:1091B00025F87B681B686FF012021A607B681B68D9
:1091C0001B6803F00403042B0CBF01230023DBB254
:1091D000FB607B681B685B6803F08003802B0CBF1F
:1091E00001230023DBB2BB60FB68002B57D0BB68B8
:1091F000002B54D07B681B6C03F01003002B05D1AF
:109200007B681B6C43F400527B681A647B681B68A4
:109210009B6803F44013002B39D17B681B689B6B60
:1092200003F44013002B06D07B681B689B6803F493
:109230008063002B2BD17B681B685B6803F4806321
:10924000002B24D17B681B689B6803F04053002BE4
:109250001DD17B681B7E002B19D17B681B685A6867
:109260007B681B6822F080025A607B681B6C23F4C9
:1092700080527B681A647B681B6C03F48073002B3C
:1092800005D17B681B6C43F001027B681A64786827
:1092900000F038FC7B681B686FF00C021A607B687A
:1092A0001B681B6803F00103012B0CBF0123002383
:1092B000DBB2FB607B681B685B6803F04003402BFC
:1092C0000CBF01230023DBB2BB60FB68002B17D06F
:1092D000BB68002B14D07B681B681B6803F001037C
:1092E000012B0DD17B681B6C43F480327B681A64C0
:1092F000786800F053F97B681B686FF001021A6010
:109300007B681B681B6803F02003202B0CBF012324
:109310000023DBB2FB607B681B685B6803F0806343
:10932000B3F1806F0CBF01230023DBB2BB60FB688D
:10933000002B15D0BB68002B12D07B685B6C43F010
:1093400002027B685A647B681B686FF020021A6017
:10935000786800F02DF97B681B686FF020021A60B6
:1093600000BF1037BD4680BD80B586B000AFF86045
:10937000B9607A6000233B61FB6893F83C30012BB5
:1093800001D10223E9E0FB68012283F83C20FB685D
:109390001B689B6803F00103012B18D0FB681B6856
:1093A0009A68FB681B6842F001029A606D4B1B686B
:1093B0006D4AA2FB03239A0C13465B0013443B61E6
:1093C00002E03B69013B3B613B69002BF9D1FB6843
:1093D0001B689B6803F48073B3F5807F07D1FB683B
:1093E0001B689A68FB681B6822F480729A60FB68AD
:1093F0001B689B6803F00103012B40F0A180FB6810
:109400001B6C23F4E06323F0010343F48072FB68D8
:109410001A64FB681B685B6803F48063002B07D049
:10942000FB681B6C23F4405343F48052FB681A64BE
:10943000FB681B6C03F48053B3F5805F06D1FB68B7
:109440005B6C23F00602FB685A6402E0FB680022B2
:109450005A64FB68002283F83C20444B7B61FB6824
:109460009B6B434ADA63FB689B6B424A1A64FB6856
:109470009B6B414ADA64FB681B686FF022021A603A
:10948000FB681B685A68FB681B6842F080625A6080
:10949000FB681B689A68FB681B6842F480729A60DC
:1094A000FB68986BFB681B684C331946BA687B688D
:1094B00001F0F8F97B695B6803F01F03002B2AD1E8
:1094C000FB681B682D4A934215D0FB681B682C4A29
:1094D000934205D1254B5B6803F01F03002B0AD094
:1094E000FB681B68274A934236D1204B5B6803F028
:1094F0001003002B30D1FB681B689B6803F04053BE
:10950000002B29D1FB681B689A68FB681B6842F036
:1095100080429A6020E0FB681B68184A93421BD186
:10952000FB681B689B6803F04053002B14D1FB6859
:109530001B689A68FB681B6842F080429A600BE0E7
:10954000FB681B6C43F01002FB681A64FB685B6CE1
:1095500043F00102FB685A64002318461837BD46E1
:1095600080BD00BF0802002083DE1B4300230140B2
:10957000019A0008BB9A0008D79A00080020014011
:10958000002101400022014080B483B000AF786028
:1095900000BF0C37BD465DF8047B704780B483B0D4
:1095A00000AF786000BF0C37BD465DF8047B7047A4
:1095B00080B483B000AF786000BF0C37BD465DF863
:1095C000047B704780B485B000AF786039600023B9
:1095D000BB607B6893F83C30012B01D1022305E18D
:1095E0007B68012283F83C203B681B68092B25D946
:1095F0007B681B68D9683B681B689BB21A46134698
:109600005B0013441E3B072202FA03F3DA437B6834
:109610001B680A40DA607B681B68D9683B689A68F7
:109620003B681B689BB2184603465B0003441E3B25
:109630009A407B681B680A43DA6022E07B681B68FB
:1096400019693B681B689BB21A4613465B001344BA
:10965000072202FA03F3DA437B681B680A401A61A7
:109660007B681B6819693B689A683B681B689BB2FA
:10967000184603465B0003449A407B681B680A4314
:109680001A613B685B68062B24D87B681B68596BA2
:109690003B685A6813469B001344053B1F2202FA9D
:1096A00003F3DA437B681B680A405A637B681B68D4
:1096B000596B3B681B689BB218463B685A68134657
:1096C0009B001344053B00FA03F27B681B680A43C6
:1096D0005A634CE03B685B680C2B24D87B681B68A2
:1096E000196B3B685A6813469B001344233B1F22A7
:1096F00002FA03F3DA437B681B680A401A637B684B
:109700001B68196B3B681B689BB218463B685A681C
:1097100013469B001344233B00FA03F27B681B684B
:109720000A431A6323E07B681B68D96A3B685A685E
:1097300013469B001344413B1F2202FA03F3DA4312
:109740007B681B680A40DA627B681B68D96A3B68E1
:109750001B689BB218463B685A6813469B0013442B
:10976000413B00FA03F27B681B680A43DA62224B32
:10977000FB607B681B68214A934209D13B681B68E8
:10978000122B05D1FB685B6843F48002FB685A60CA
:109790007B681B68194A934223D13B681B68102BD6
:1097A00003D03B681B68112B1BD1FB685B6843F43B
:1097B0000002FB685A603B681B68102B11D1104BEC
:1097C0001B68104AA2FB03239A0C13469B00134408
:1097D0005B00BB6002E0BB68013BBB60BB68002B69
:1097E000F9D17B68002283F83C2000231846143707
:1097F000BD465DF8047B7047002301400020014016
:109800000802002083DE1B4380B485B000AF78607F
:10981000794BFB60FB685B6823F44032FB685A605D
:10982000FB685A687B685B681A43FB685A607B6810
:109830001B685A687B681B6822F480725A607B68D8
:109840001B6859687B681B691A027B681B680A439E
:109850005A607B681B685A687B681B6822F04072FC
:109860005A607B681B6859687B689A687B681B68CC
:109870000A435A607B681B689A687B681B6822F4FD
:1098800000629A607B681B6899687B68DA687B680D
:109890001B680A439A607B689B6A584A934222D0AD
:1098A0007B681B689A687B681B6822F070629A600C
:1098B0007B681B6899687B689A6A7B681B680A43A7
:1098C0009A607B681B689A687B681B6822F040522C
:1098D0009A607B681B6899687B68DA6A7B681B689A
:1098E0000A439A600FE07B681B689A687B681B6874
:1098F00022F070629A607B681B689A687B681B68BC
:1099000022F040529A607B681B689A687B681B68EB
:1099100022F002029A607B681B6899687B681B7E54
:109920005A007B681B680A439A607B6893F8203072
:10993000002B1BD07B681B685A687B681B6842F44D
:1099400000625A607B681B685A687B681B6822F457
:1099500060425A607B681B6859687B685B6A013BA0
:109960005A037B681B680A435A6007E07B681B68E0
:109970005A687B681B6822F400625A607B681B6827
:10998000DA6A7B681B6822F47002DA627B681B6803
:10999000D96A7B68DB69013B1A057B681B680A434F
:1099A000DA627B681B689A687B681B6822F4007225
:1099B0009A607B681B6899687B6893F830305A021C
:1099C0007B681B680A439A607B681B689A687B689F
:1099D0001B6822F480629A607B681B6899687B68C8
:1099E0005B699A027B681B680A439A6000BF143760
:1099F000BD465DF8047B7047002301400100000F65
:109A000080B584B000AF78607B689B6BFB60FB68BF
:109A10001B6C03F05003002B3CD1FB681B6C43F420
:109A20000072FB681A64FB681B689B6803F0405374
:109A3000002B2BD1FB681B7E002B27D1FB681B68FA
:109A4000DB6A03F47003002B06D0FB681B689B687D
:109A500003F48063002B19D1FB681B685A68FB680C
:109A60001B6822F020025A60FB681B6C23F4807292
:109A7000FB681A64FB681B6C03F48053002B05D150
:109A8000FB681B6C43F00102FB681A64F86803F082
:109A9000B5FB0EE0FB681B6C03F01003002B03D03A
:109AA000F868FFF785FD04E0FB689B6BDB6C78686A
:109AB000984700BF1037BD4680BD80B584B000AF69
:109AC00078607B689B6BFB60F868FFF75DFD00BF0B
:109AD0001037BD4680BD80B584B000AF78607B682C
:109AE0009B6BFB60FB6840221A64FB685B6C43F075
:109AF0000402FB685A64F868FFF75AFD00BF10378C
:109B0000BD4680BD80B483B000AF786000BF0C3725
:109B1000BD465DF8047B704780B584B000AF7860C7
:109B20007B68002B01D10123EDE07B6893F82030A6
:109B3000DBB2002B02D1786800F0E9F87B681B6883
:109B40001A687B681B6822F002021A60FFF758FA55
:109B5000F86012E0FFF754FA0246FB68D31A0A2BAA
:109B60000BD97B685B6A43F400327B685A627B687E
:109B7000052283F820200123C5E07B681B685B6811
:109B800003F00203002BE5D17B681B681A687B6831
:109B90001B6842F001021A60FFF732FAF86012E027
:109BA000FFF72EFA0246FB68D31A0A2B0BD97B6803
:109BB0005B6A43F400327B685A627B68052283F853
:109BC000202001239FE07B681B685B6803F0010392
:109BD000002BE5D07B681B7E012B08D17B681B68BE
:109BE0001A687B681B6842F080021A6007E07B6895
:109BF0001B681A687B681B6822F080021A607B6809
:109C00005B7E012B08D17B681B681A687B681B6828
:109C100042F040021A6007E07B681B681A687B68A4
:109C20001B6822F040021A607B689B7E012B08D1E2
:109C30007B681B681A687B681B6842F020021A6008
:109C400007E07B681B681A687B681B6822F02002AB
:109C50001A607B68DB7E012B08D17B681B681A6861
:109C60007B681B6822F010021A6007E07B681B68A3
:109C70001A687B681B6842F010021A607B681B7FC1
:109C8000012B08D17B681B681A687B681B6842F04F
:109C900008021A6007E07B681B681A687B681B680B
:109CA00022F008021A607B685B7F012B08D17B6879
:109CB0001B681A687B681B6842F004021A6007E0A0
:109CC0007B681B681A687B681B6822F004021A60B4
:109CD0007B689A687B68DB681A437B681B691A4358
:109CE0007B685B6942EA03017B685B685A1E7B689C
:109CF0001B680A43DA617B6800225A627B68012292
:109D000083F82020002318461037BD4680BD80B45C
:109D100083B000AF786000BF0C37BD465DF8047BB0
:109D20007047000080B487B000AF786039607B680E
:109D30001B687B617B6893F82030FB74FB7C012BF4
:109D400003D0FB7C022B40F0BE80654B7B617B69BE
:109D5000D3F8003243F001027B69C3F800227B692B
:109D6000D3F8003223F47C527B69C3F800227B696C
:109D7000D3F800223B685B6A1B021A437B69C3F875
:109D800000223B685B6903F01F03012202FA03F320
:109D9000FB607B69D3F81C22FB68DB431A407B69BC
:109DA000C3F81C223B68DB69002B23D17B69D3F805
:109DB0000C22FB68DB431A407B69C3F80C223B682A
:109DC000DB6819043B685B689BB23A6852691943C7
:109DD0007B69483243F832103B689B6819043B6842
:109DE0001B689AB23B685B690A4379694833DB00B8
:109DF0000B445A603B68DB69012B22D17B69D3F8A5
:109E00000C22FB681A437B69C3F80C223B681B6871
:109E100019043B685B689BB23A68526919437B69D5
:109E2000483243F832103B689B6819043B68DB6892
:109E30009AB23B685B690A4379694833DB000B449B
:109E40005A603B689B69002B09D17B69D3F80422D7
:109E5000FB68DB431A407B69C3F8042207E07B6997
:109E6000D3F80422FB681A437B69C3F804223B68D9
:109E70001B69002B09D17B69D3F81422FB68DB43F3
:109E80001A407B69C3F8142207E07B69D3F81422D7
:109E9000FB681A437B69C3F814223B681B6A012BD9
:109EA00007D17B69D3F81C22FB681A437B69C3F88E
:109EB0001C227B69D3F8003223F001027B69C3F8CE
:109EC0000022002306E07B685B6A43F480227B6803
:109ED0005A62012318461C37BD465DF8047B704763
:109EE0000064004080B487B000AFF860B9607A6069
:109EF0003B60FB6893F82030FB75FB7D012B03D0A2
:109F0000FB7D022B40F0F380BB68002B0ED1FB6879
:109F10001B68DB6803F00303002B16D1FB685B6A48
:109F200043F40012FB685A620123E7E0FB681B68F8
:109F30001B6903F00303002B07D1FB685B6A43F442
:109F40000012FB685A620123D8E0FB681A68BB68FC
:109F50001B331B0113441B6803F004027B689A60E7
:109F60007B689B68002B0CD1FB681A68BB681B33AD
:109F70001B0113441B685B0DC3F30A027B681A6064
:109F80000BE0FB681A68BB681B331B0113441B689A
:109F9000DB0823F060427B685A60FB681A68BB6884
:109FA0001B331B0113441B6803F002027B68DA6059
:109FB000FB681A68BB681B331B01134404331B681E
:109FC00003F00F027B681A61FB681A68BB681B33D9
:109FD0001B01134404331B681B0ADAB27B689A61C5
:109FE000FB681A68BB681B331B01134404331B68EE
:109FF0001B0C9AB27B685A61FB681A68BB681B012C
:10A00000134403F5DC731B68DAB23B681A70FB6813
:10A010001A68BB681B01134403F5DC731B681A0A3A
:10A020003B680133D2B21A70FB681A68BB681B0127
:10A03000134403F5DC731B681A0C3B680233D2B27D
:10A040001A70FB681A68BB681B01134403F5DC73C4
:10A050001B681A0E3B680333D2B21A70FB681A6889
:10A06000BB681B01134403F5DE731A683B680433B5
:10A07000D2B21A70FB681A68BB681B01134403F55F
:10A08000DE731B681A0A3B680533D2B21A70FB688C
:10A090001A68BB681B01134403F5DE731B681A0CB6
:10A0A0003B680633D2B21A70FB681A68BB681B01A2
:10A0B000134403F5DE731B681A0E3B680733D2B2F4
:10A0C0001A70BB68002B08D1FB681B68DA68FB6854
:10A0D0001B6842F02002DA6007E0FB681B681A691F
:10A0E000FB681B6842F020021A61002306E0FB684F
:10A0F0005B6A43F48022FB685A62012318461C37CE
:10A10000BD465DF8047B704780B58AB000AF7860CB
:10A1100000237B627B681B685B693B627B681B6812
:10A120005B68FB617B681B689B68BB617B681B6825
:10A13000DB687B617B681B681B693B617B681B6814
:10A140009B69FB603B6A03F00103002B7CD0BB6979
:10A1500003F00103002B23D07B681B6801229A6067
:10A16000BB6903F00203002B03D0786800F083F989
:10A1700016E0BB6903F00403002B04D07B6A43F4B0
:10A1800000637B620CE0BB6903F00803002B04D082
:10A190007B6A43F480537B6202E0786800F089F9BF
:10A1A000BB6903F48073002B24D07B681B684FF4D9
:10A1B00080729A60BB6903F40073002B03D0786847
:10A1C00000F063F916E0BB6903F48063002B04D050
:10A1D0007B6A43F400537B620CE0BB6903F40063C9
:10A1E000002B04D07B6A43F480437B6202E07868F2
:10A1F00000F069F9BB6903F48033002B24D07B683D
:10A200001B684FF480329A60BB6903F40033002B63
:10A2100003D0786800F043F916E0BB6903F48023AB
:10A22000002B04D07B6A43F400437B620CE0BB69E3
:10A2300003F40023002B04D07B6A43F480337B6259
:10A2400002E0786800F049F93B6A03F00803002B4C
:10A250000CD07B6903F01003002B07D07B6A43F41A
:10A2600000737B627B681B681022DA603B6A03F034
:10A270000403002B0BD07B6903F00803002B06D0EE
:10A280007B681B680822DA60786800F03AF93B6A5C
:10A2900003F00203002B09D07B681B68DB6803F026
:10A2A0000303002B02D0786800F021F93B6A03F029
:10A2B0004003002B0CD03B6903F01003002B07D0A8
:10A2C0007B6A43F480637B627B681B6810221A619F
:10A2D0003B6A03F02003002B0BD03B6903F008031B
:10A2E000002B06D07B681B6808221A61786800F092
:10A2F0001CF93B6A03F01003002B09D07B681B6834
:10A300001B6903F00303002B02D0786800F003F907
:10A310003B6A03F40033002B0BD0FB6903F01003FE
:10A32000002B06D07B681B6810225A60786800F00A
:10A3300006F93B6A03F48033002B0BD0FB6903F072
:10A340000803002B06D07B681B6808225A607868D7
:10A3500000F0FFF83B6A03F40043002B7BD0FB695D
:10A3600003F00403002B72D03B6A03F48073002BCC
:10A3700008D0FB6803F00103002B03D07B6A43F095
:10A3800001037B623B6A03F40073002B08D0FB6877
:10A3900003F00203002B03D07B6A43F002037B62CD
:10A3A0003B6A03F48063002B08D0FB6803F00403CE
:10A3B000002B03D07B6A43F004037B623B6A03F407
:10A3C0000063002B43D0FB6803F07003002B3ED0EA
:10A3D000FB6803F07003602B2BD0602B2ED8502B22
:10A3E00022D0502B2AD8402B19D0402B26D8302BE6
:10A3F00010D0302B22D8102B02D0202B05D01DE0FE
:10A400007B6A43F008037B6219E07B6A43F0100328
:10A410007B6214E07B6A43F020037B620FE07B6A7F
:10A4200043F040037B620AE07B6A43F080037B6277
:10A4300005E07B6A43F480737B6200E000BF7B68C9
:10A440001B689A697B681B6822F070029A617B68BE
:10A450001B6804225A607B6A002B08D07B685A6A0A
:10A460007B6A1A437B685A62786800F07CF800BF08
:10A470002837BD4680BD80B483B000AF786000BF90
:10A480000C37BD465DF8047B704780B483B000AFE5
:10A49000786000BF0C37BD465DF8047B704780B420
:10A4A00083B000AF786000BF0C37BD465DF8047B19
:10A4B000704780B483B000AF786000BF0C37BD46F2
:10A4C0005DF8047B704780B483B000AF786000BF54
:10A4D0000C37BD465DF8047B704780B483B000AF95
:10A4E000786000BF0C37BD465DF8047B704780B4D0
:10A4F00083B000AF786000BF0C37BD465DF8047BC9
:10A50000704780B483B000AF786000BF0C37BD46A1
:10A510005DF8047B704780B483B000AF786000BF03
:10A520000C37BD465DF8047B704780B483B000AF44
:10A53000786000BF0C37BD465DF8047B704780B47F
:10A5400083B000AF786000BF0C37BD465DF8047B78
:10A55000704780B483B000AF786000BF0C37BD4651
:10A560005DF8047B704780B483B000AF786000BFB3
:10A570000C37BD465DF8047B7047000080B485B0A1
:10A5800000AF78607B6803F00703FB600C4BDB686F
:10A59000BB60BA684FF6FF031340BB60FB681A024A
:10A5A000BB68134343F0BF6343F40033BB60044A0A
:10A5B000BB68D36000BF1437BD465DF8047B7047AD
:10A5C00000ED00E080B400AF044BDB681B0A03F031
:10A5D00007031846BD465DF8047B704700ED00E0B8
:10A5E00080B483B000AF03463960FB7197F9073040
:10A5F000002B0ADB3B68DAB20C4997F907301201ED
:10A60000D2B20B4483F800230AE03B68DAB208496F
:10A61000FB7903F00F03043B1201D2B20B441A760C
:10A6200000BF0C37BD465DF8047B704700E100E0D9
:10A6300000ED00E080B489B000AFF860B9607A60E6
:10A64000FB6803F00703FB61FB69C3F10703042BFD
:10A6500028BF0423BB61FB690433062B02D9FB69C5
:10A66000033B00E000237B614FF0FF32BB6902FA3D
:10A6700003F3DA43BB681A407B699A404FF0FF311D
:10A680007B6901FA03F3D9437B680B4013431846F7
:10A690002437BD465DF8047B7047000080B582B06A
:10A6A00000AF78607B68013BB3F1807F01D3012369
:10A6B0000FE00A4A7B68013B53600F214FF0FF30E7
:10A6C000FFF78EFF054B00229A60044B07221A60A9
:10A6D000002318460837BD4680BD00BF10E000E0EB
:10A6E00080B582B000AF78607868FFF747FF00BFA1
:10A6F0000837BD4680BD80B586B000AF0346B9605F
:10A700007A60FB7300237B61FFF75CFF78617A68F6
:10A71000B9687869FFF78EFF024697F90F30114646
:10A720001846FFF75DFF00BF1837BD4680BD80B5F6
:10A7300082B000AF78607868FFF7B0FF0346184634
:10A740000837BD4680BD000080B586B000AF786098
:10A7500000237B61FEF754FC38617B68002B01D13C
:10A76000012399E07B68002283F834207B68022271
:10A7700083F835207B681B681A687B681B6822F0A9
:10A7800001021A600FE0FEF73BFC02463B69D31A58
:10A79000052B08D97B6820225A657B68032283F841
:10A7A0003520032378E07B681B681B6803F00103F6
:10A7B000002BE8D17B681B681B687B617A69384B8A
:10A7C00013407B617B685A687B689B681A437B688F
:10A7D000DB681A437B681B691A437B685B691A4311
:10A7E0007B689B691A437B68DB691A437B681B6A39
:10A7F00013437A6913437B617B685B6A042B07D13F
:10A800007B68DA6A7B681B6B13437A6913437B614D
:10A810007B681B687A691A607B681B685B697B616F
:10A820007B6923F007037B617B685B6A7A6913436A
:10A830007B617B685B6A042B17D17B689B6A7A69B2
:10A8400013437B617B68DB6A002B0ED0786800F0D5
:10A8500001FB0346002B08D07B6840225A657B68C9
:10A86000012283F83520012316E07B681B687A6992
:10A870005A61786800F0B8FA0346FB607B68DB6DCC
:10A880003F229A40FB689A607B6800225A657B6889
:10A89000012283F83520002318461837BD4680BDB5
:10A8A0003F8010F080B586B000AFF860B9607A6084
:10A8B0003B600023FB75FB689B6D3B61FB6893F875
:10A8C0003430012B01D1022340E0FB68012283F8E0
:10A8D0003420FB6893F83530DBB2012B2FD1FB68B5
:10A8E000022283F83520FB6800225A653B687A68AB
:10A8F000B968F86800F04AFAFB68DB6D3F229A40BD
:10A900003B699A60FB681B681A68FB681B6842F029
:10A9100016021A60FB681B6C002B07D0FB681B68D3
:10A920001A68FB681B6842F008021A60FB681B6823
:10A930001A68FB681B6842F001021A6005E0FB68B8
:10A94000002283F834200223FB75FB7D184618375C
:10A95000BD4680BD80B584B000AF78607B689B6DDC
:10A96000FB60FEF74DFBB8607B6893F83530DBB2D7
:10A97000022B08D07B6880225A657B68002283F80E
:10A980003420012352E07B681B681A687B681B68CF
:10A9900022F016021A607B681B685A697B681B6884
:10A9A00022F080025A617B681B6C002B03D17B680C
:10A9B0009B6C002B07D07B681B681A687B681B6840
:10A9C00022F008021A607B681B681A687B681B68A3
:10A9D00022F001021A6013E0FEF712FB0246BB6888
:10A9E000D31A052B0CD97B6820225A657B6800227C
:10A9F00083F834207B68032283F83520032315E095
:10AA00007B681B681B6803F00103002BE4D17B68A3
:10AA1000DB6D3F229A40FB689A607B68002283F8D6
:10AA200034207B68012283F8352000231846103734
:10AA3000BD4680BD80B483B000AF78607B6893F87A
:10AA40003530DBB2022B04D07B6880225A650123AB
:10AA50000CE07B68052283F835207B681B681A6848
:10AA60007B681B6822F001021A60002318460C372D
:10AA7000BD465DF8047B704780B586B000AF786056
:10AA80000023BB60924B1B68924AA2FB03239B0AE4
:10AA90007B617B689B6D3B613B691B68FB607B68EE
:10AAA000DB6D08229A40FB681340002B1AD07B68AC
:10AAB0001B681B6803F00403002B13D07B681B6822
:10AAC0001A687B681B6822F004021A607B68DB6DE1
:10AAD00008229A403B699A607B685B6D43F00102F3
:10AAE0007B685A657B68DB6D01229A40FB681340E6
:10AAF000002B12D07B681B685B6903F08003002B7E
:10AB00000BD07B68DB6D01229A403B699A607B68C1
:10AB10005B6D43F002027B685A657B68DB6D042243
:10AB20009A40FB681340002B12D07B681B681B689F
:10AB300003F00203002B0BD07B68DB6D04229A40EC
:10AB40003B699A607B685B6D43F004027B685A65E1
:10AB50007B68DB6D10229A40FB681340002B43D0CA
:10AB60007B681B681B6803F00803002B3CD07B68E4
:10AB7000DB6D10229A403B699A607B681B681B68FA
:10AB800003F48023002B18D07B681B681B6803F438
:10AB90000023002B08D17B681B6C002B24D07B6822
:10ABA0001B6C786898471FE07B689B6C002B1BD060
:10ABB0007B689B6C7868984716E07B681B681B680D
:10ABC00003F48073002B07D17B681B681A687B68CD
:10ABD0001B6822F008021A607B681B6C002B03D0F4
:10ABE0007B681B6C786898477B68DB6D20229A40F5
:10ABF000FB681340002B00F08E807B681B681B688D
:10AC000003F01003002B00F086807B68DB6D2022B0
:10AC10009A403B699A607B6893F83530DBB2052B2C
:10AC200036D17B681B681A687B681B6822F01602A5
:10AC30001A607B681B685A697B681B6822F0800277
:10AC40005A617B681B6C002B03D17B689B6C002BCB
:10AC500007D07B681B681A687B681B6822F00802B3
:10AC60001A607B68DB6D3F229A403B699A607B6883
:10AC7000002283F834207B68012283F835207B682A
:10AC80001B6D002B7DD07B681B6D7868984778E042
:10AC90007B681B681B6803F48023002B1CD07B6837
:10ACA0001B681B6803F40023002B08D17B685B6CD6
:10ACB000002B30D07B685B6C786898472BE07B6812
:10ACC000DB6B002B27D07B68DB6B7868984722E032
:10ACD00008020020B5814E1B7B681B681B6803F4CB
:10ACE0008073002B0FD17B681B681A687B681B6818
:10ACF00022F010021A607B68002283F834207B68FF
:10AD0000012283F835207B68DB6B002B03D07B6846
:10AD1000DB6B786898477B685B6D002B32D07B6873
:10AD20005B6D03F00103002B22D07B68052283F8C2
:10AD300035207B681B681A687B681B6822F001025B
:10AD40001A60BB680133BB607A699A4207D37B689B
:10AD50001B681B6803F00103002BF2D100E000BF69
:10AD60007B68002283F834207B68012283F8352039
:10AD70007B68DB6C002B05D07B68DB6C78689847C0
:10AD800000E000BF1837BD4680BD00BF80B485B06D
:10AD900000AFF860B9607A603B60FB681B681A68B6
:10ADA000FB681B6822F480221A60FB681B683A6803
:10ADB0005A60FB689B68402B08D1FB681B687A6867
:10ADC0009A60FB681B68BA68DA6007E0FB681B687A
:10ADD000BA689A60FB681B687A68DA6000BF14374B
:10ADE000BD465DF8047B704780B485B000AF7860E5
:10ADF0007B681B68DBB2103B144AA2FB03231B09D0
:10AE0000FB60134AFB6813441B781A467B68DA65BB
:10AE1000FB68032B09D97B681B6823F47F7323F03D
:10AE200003031A1D7B689A6507E07B681B6823F49F
:10AE30007F7323F003037A6893657B689B6D1846E4
:10AE40001437BD465DF8047B704700BFABAAAAAAC1
:10AE50007030010880B485B000AF78600023FB73C8
:10AE60007B689B6ABB607B689B69002B1FD1BB68BA
:10AE7000032B56D801A252F823F000BF8DAE000874
:10AE80009FAE00088DAE000823AF00087B68DB6A28
:10AE900003F08073002B46D00123FB7343E07B68F3
:10AEA000DB6AB3F1C07F40D10123FB733DE07B68D7
:10AEB0009B69B3F5005F21D1BB68032B37D801A292
:10AEC00052F823F0D5AE0008DBAE0008D5AE00087E
:10AED000EDAE00080123FB7330E07B68DB6A03F012
:10AEE0008073002B25D00123FB7322E07B68DB6A93
:10AEF000B3F1C07F1FD10123FB731CE0BB68022BA1
:10AF000003D9BB68032B03D018E00123FB7315E0C2
:10AF10007B68DB6A03F08073002B0ED00123FB7388
:10AF20000BE000BF0AE000BF08E000BF06E000BF82
:10AF300004E000BF02E000BF00E000BFFB7B18465A
:10AF40001437BD465DF8047B704700BF80B489B0FC
:10AF500000AF7860396000237B6100233B610023F0
:10AF6000BB610023FB616BE10122FB6902FA03F381
:10AF70007B613B681B687A6913403B613A697B6976
:10AF80009A4240F05A813B685B6803F00303012B4F
:10AF900005D03B685B6803F00303022B30D17B686C
:10AFA0009B68BB61FB695B00032202FA03F3DB438E
:10AFB000BA691340BB613B68DA68FB695B0002FA5F
:10AFC00003F3BA691343BB617B68BA699A607B6813
:10AFD0005B68BB610122FB6902FA03F3DB43BA69D8
:10AFE0001340BB613B685B681B0903F00102FB690E
:10AFF00002FA03F3BA691343BB617B68BA695A600A
:10B000003B685B6803F00303032B17D07B68DB68A6
:10B01000BB61FB695B00032202FA03F3DB43BA69FD
:10B020001340BB613B689A68FB695B0002FA03F35B
:10B03000BA691343BB617B68BA69DA603B685B68D5
:10B0400003F00303022B23D1FB69DA087B68083283
:10B0500053F82230BB61FB6903F007039B000F220A
:10B0600002FA03F3DB43BA691340BB613B681A6918
:10B07000FB6903F007039B0002FA03F3BA69134369
:10B08000BB61FB69DA087B680832B96943F82210B2
:10B090007B681B68BB61FB695B00032202FA03F358
:10B0A000DB43BA691340BB613B685B6803F0030292
:10B0B000FB695B0002FA03F3BA691343BB617B6867
:10B0C000BA691A603B685B6803F08053002B00F09C
:10B0D000B4800023FB60604B5B6C5F4A43F48043A9
:10B0E00053645D4B5B6C03F48043FB60FB685B4A1D
:10B0F000FB699B08023352F82330BB61FB6903F004
:10B1000003039B000F2202FA03F3DB43BA691340E7
:10B11000BB617B68524A93422BD07B68514A934271
:10B1200025D07B68504A93421FD07B684F4A934298
:10B1300019D07B684E4A934213D07B684D4A9342A4
:10B140000DD07B684C4A934207D07B684B4A9342B0
:10B1500001D107230EE008230CE006230AE00523B3
:10B1600008E0042306E0032304E0022302E00123B5
:10B1700000E00023FA6902F0030292009340BA69EA
:10B180001343BB613549FB699B080233BA6941F837
:10B1900023203B4B1B68BB613B69DB43BA6913400F
:10B1A000BB613B685B6803F48033002B03D0BA6952
:10B1B0003B691343BB61324ABB691360304B5B6828
:10B1C000BB613B69DB43BA691340BB613B685B68A9
:10B1D00003F40033002B03D0BA693B691343BB610E
:10B1E000274ABB695360264B9B68BB613B69DB43C5
:10B1F000BA691340BB613B685B6803F48013002BA2
:10B2000003D0BA693B691343BB611D4ABB699360B4
:10B210001B4BDB68BB613B69DB43BA691340BB6115
:10B220003B685B6803F40013002B03D0BA693B69E9
:10B230001343BB61124ABB69D360FB690133FB61F5
:10B24000FB690F2B7FF690AE00BF00BF2437BD46D1
:10B250005DF8047B704700BF0038024000380140B1
:10B26000000002400004024000080240000C0240BE
:10B27000001002400014024000180240001C02406E
:10B28000003C014080B485B000AF78600B467B8005
:10B290007B681A697B881340002B02D00123FB7363
:10B2A00001E00023FB73FB7B18461437BD465DF8B5
:10B2B000047B704780B483B000AF78600B467B801E
:10B2C00013467B707B78002B03D07A887B689A6169
:10B2D00003E07B881A047B689A6100BF0C37BD4687
:10B2E0005DF8047B704780B485B000AF78600B4692
:10B2F0007B807B685B69FB607A88FB6813401A047B
:10B30000FB68D9437B880B401A437B689A6100BF76
:10B310001437BD465DF8047B704780B584B000AF3C
:10B3200078607B68002B01D1012334E07B681B68C7
:10B330004CF6CC421A607B681B6845F255521A6085
:10B340007B681B687A6852685A607B681B687A68F9
:10B3500092689A60FDF754FEF8600FE0FDF750FE2A
:10B360000246FB68D31A302B08D97B681B68DB6860
:10B3700003F00303002B01D003230CE07B681B6860
:10B38000DB6803F00303002BE8D17B681B684AF6F7
:10B39000AA221A60002318461037BD4680BD80B42B
:10B3A00083B000AF78607B681B684AF6AA221A60F7
:10B3B000002318460C37BD465DF8047B704700003B
:10B3C00080B586B000AF78607B68002B01D1012387
:10B3D00064E27B681B6803F00103002B75D0A34B6C
:10B3E0009B6803F00C03042B0CD0A04B9B6803F06C
:10B3F0000C03082B12D19D4B5B6803F48003B3F55B
:10B40000800F0BD1994B1B6803F40033002B5BD0EA
:10B410007B685B68002B57D101233FE27B685B6848
:10B42000B3F5803F06D1914B1B68904A43F48033BB
:10B4300013601DE07B685B68B3F5A02F0CD18B4BCC
:10B440001B688A4A43F480231360884B1B68874A31
:10B4500043F4803313600BE0844B1B68834A23F46E
:10B4600080331360814B1B68804A23F48023136070
:10B470007B685B68002B13D0FDF7C2FD386108E0E4
:10B48000FDF7BEFD02463B69D31A642B01D90323A5
:10B4900004E2764B1B6803F40033002BF0D014E079
:10B4A000FDF7AEFD386108E0FDF7AAFD02463B69F5
:10B4B000D31A642B01D90323F0E16C4B1B6803F40E
:10B4C0000033002BF0D100E000BF7B681B6803F065
:10B4D0000203002B63D0654B9B6803F00C03002B29
:10B4E0000BD0624B9B6803F00C03082B1CD15F4B05
:10B4F0005B6803F48003002B16D15C4B1B6803F0E0
:10B500000203002B05D07B68DB68012B01D00123EF
:10B51000C4E1564B1B6823F0F8027B681B69DB0013
:10B52000524913430B603AE07B68DB68002B20D064
:10B530004F4B01221A60FDF763FD386108E0FDF70B
:10B540005FFD02463B69D31A022B01D90323A5E113
:10B55000464B1B6803F00203002BF0D0434B1B68E3
:10B5600023F0F8027B681B69DB00404913430B6042
:10B5700015E03F4B00221A60FDF742FD386108E0FC
:10B58000FDF73EFD02463B69D31A022B01D9032386
:10B5900084E1364B1B6803F00203002BF0D17B687B
:10B5A0001B6803F00803002B30D07B685B69002B1D
:10B5B00016D0304B01221A60FDF722FD386108E0F9
:10B5C000FDF71EFD02463B69D31A022B01D9032366
:10B5D00064E1264B5B6F03F00203002BF0D015E013
:10B5E000244B00221A60FDF70BFD386108E0FDF7DF
:10B5F00007FD02463B69D31A022B01D903234DE113
:10B600001A4B5B6F03F00203002BF0D17B681B68C1
:10B6100003F00403002B00F0A0800023FB75134B04
:10B620001B6C03F08053002B0FD10023BB600F4B2A
:10B630001B6C0E4A43F0805313640C4B1B6C03F0DD
:10B640008053BB60BB680123FB750B4B1B6803F485
:10B650008073002B21D1084B1B68074A43F4807389
:10B660001360FDF7CDFC386111E000BF00380240E7
:10B6700000004742800E474200700040FDF7C0FCCA
:10B6800002463B69D31A022B01D9032306E1854BFD
:10B690001B6803F48073002BF0D07B689B68012B40
:10B6A00006D1814B1B6F804A43F0010313671CE0F6
:10B6B0007B689B68052B0CD17B4B1B6F7A4A43F050
:10B6C00004031367784B1B6F774A43F0010313673A
:10B6D0000BE0754B1B6F744A23F001031367724B29
:10B6E0001B6F714A23F0040313677B689B68002B70
:10B6F00015D0FDF785FC38610AE0FDF781FC0246B4
:10B700003B69D31A41F28832934201D90323C5E041
:10B71000654B1B6F03F00203002BEED014E0FDF726
:10B720006FFC38610AE0FDF76BFC02463B69D31AF7
:10B7300041F28832934201D90323AFE05A4B1B6F89
:10B7400003F00203002BEED1FB7D012B05D1564BFC
:10B750001B6C554A23F0805313647B689B69002B54
:10B7600000F09B80504B9B6803F00C03082B5CD0CF
:10B770007B689B69022B41D14C4B00221A60FDF77C
:10B780003FFC386108E0FDF73BFC02463B69D31AF9
:10B79000022B01D9032381E0434B1B6803F00073A4
:10B7A000002BF0D17B68DA697B681B6A1A437B68DF
:10B7B0005B6A9B011A437B689B6A5B08013B1B0425
:10B7C0001A437B68DB6A1B06374913434B60374BD0
:10B7D00001221A60FDF714FC386108E0FDF710FC47
:10B7E00002463B69D31A022B01D9032356E02E4BA4
:10B7F0001B6803F00073002BF0D04EE02B4B0022AF
:10B800001A60FDF7FDFB386108E0FDF7F9FB024621
:10B810003B69D31A022B01D903233FE0224B1B685B
:10B8200003F00073002BF0D137E07B689B69012B9C
:10B8300001D1012332E01C4B5B68FB607B689B6994
:10B84000012B28D0FB6803F480027B68DB699A42F5
:10B8500021D1FB6803F03F027B681B6A9A421AD130
:10B86000FA6847F6C07313407A68526A92019342AD
:10B8700011D1FB6803F440327B689B6A5B08013B93
:10B880001B049A4207D1FB6803F070627B68DB6A95
:10B890001B069A4201D0012300E000231846183706
:10B8A000BD4680BD00700040003802406000474245
:10B8B00080B584B000AF786039607B68002B01D11F
:10B8C0000123CCE0684B1B6803F007033A689A42F7
:10B8D0000CD9654B3A68D2B21A70634B1B6803F0FF
:10B8E00007033A689A4201D00123B8E07B681B68DD
:10B8F00003F00203002B20D07B681B6803F00403D5
:10B90000002B05D0594B9B68584A43F4E053936091
:10B910007B681B6803F00803002B05D0534B9B6822
:10B92000524A43F460439360504B9B6823F0F0020B
:10B930007B689B684D4913438B607B681B6803F0F1
:10B940000103002B44D07B685B68012B07D1474B78
:10B950001B6803F40033002B19D101237FE07B68BF
:10B960005B68022B03D07B685B68032B07D13F4BDE
:10B970001B6803F00073002B09D101236FE03B4BE0
:10B980001B6803F00203002B01D1012367E0374B52
:10B990009B6823F003027B685B68344913438B6028
:10B9A000FDF72EFBF8600AE0FDF72AFB0246FB6874
:10B9B000D31A41F28832934201D903234FE02B4B33
:10B9C0009B6803F00C027B685B689B009A42EBD19A
:10B9D000254B1B6803F007033A689A420CD2224BAE
:10B9E0003A68D2B21A70204B1B6803F007033A681A
:10B9F0009A4201D0012332E07B681B6803F0040304
:10BA0000002B08D0194B9B6823F4E0527B68DB685D
:10BA1000164913438B607B681B6803F00803002BF7
:10BA200009D0124B9B6823F460427B681B69DB00E2
:10BA30000E4913438B6000F021F802460B4B9B68C4
:10BA40001B0903F00F030A49CB5C22FA03F3094AEE
:10BA50001360094B1B681846FDF78EFA0023184641
:10BA60001037BD4680BD00BF003C02400038024098
:10BA70008030010808020020000000202DE9B043BA
:10BA800084B000AF00237B600023FB6000233B6099
:10BA90000023BB60674B9B6803F00C03082B0DD0A1
:10BAA000082B00F2BD80002B02D0042B03D0B7E09E
:10BAB000614BBB60B7E0614BBB60B4E05D4B5B6862
:10BAC00003F03F037B605B4B5B6803F48003002B58
:10BAD0004DD0584B5B689B091A464FF0000340F26B
:10BAE000FF104FF0000102EA000803EA0109404696
:10BAF00049464FF000024FF000034B0143EAD06388
:10BB0000420110461946B0EB080061EB09014FF005
:10BB100000024FF000038B0143EA90638201121A86
:10BB200063EB01034FF000004FF00001D90041EA40
:10BB30005271D00002460B4612EB080243EB090398
:10BB40004FF000004FF00001590241EAD25150027B
:10BB500002460B46104619467B681A464FF0000312
:10BB6000FDF732F802460B461346FB604AE0314BC4
:10BB70005B689B091A464FF0000340F2FF104FF03C
:10BB8000000102EA000403EA0105204629464FF0BD
:10BB900000024FF000034B0143EAD063420110461C
:10BBA0001946001B61EB05014FF000024FF0000346
:10BBB0008B0143EA90638201121A63EB01034FF099
:10BBC00000004FF00001D90041EA5271D000024656
:10BBD0000B46121945EB03034FF000004FF0000134
:10BBE000990241EA9251900202460B4610461946CC
:10BBF0007B681A464FF00003FCF7E6FF02460B464F
:10BC00001346FB600B4B5B681B0C03F00303013313
:10BC10005B003B60FA683B68B2FBF3F3BB6002E099
:10BC2000054BBB6000BFBB6818461037BD46BDE87A
:10BC3000B08300BF003802400024F40000127A00F4
:10BC400080B400AF034B1B681846BD465DF8047B0B
:10BC5000704700BF0802002080B500AFFFF7F0FF7B
:10BC60000246054B9B689B0A03F007030349CB5C24
:10BC700022FA03F3184680BD0038024090300108D4
:10BC800080B500AFFFF7DCFF0246054B9B685B0BFE
:10BC900003F007030349CB5C22FA03F3184680BD87
:10BCA000003802409030010880B582B000AF786063
:10BCB0007B68002B01D1012341E07B6893F83D3084
:10BCC000DBB2002B06D17B68002283F83C20786829
:10BCD00000F039F87B68022283F83D207B681A68FF
:10BCE0007B6804331946104600F09CFA7B680122F9
:10BCF00083F846207B68012283F83E207B6801227E
:10BD000083F83F207B68012283F840207B68012272
:10BD100083F841207B68012283F842207B6801225E
:10BD200083F843207B68012283F844207B6801224A
:10BD300083F845207B68012283F83D2000231846C4
:10BD40000837BD4680BD80B483B000AF786000BFC7
:10BD50000C37BD465DF8047B7047000080B485B0A9
:10BD600000AF78607B6893F83D30DBB2012B01D0E7
:10BD700001234EE07B68022283F83D207B681B682C
:10BD8000DA687B681B6842F00102DA607B681B6836
:10BD9000234A934222D07B681B68B3F1804F1DD0A9
:10BDA0007B681B681F4A934218D07B681B681E4A39
:10BDB000934213D07B681B681C4A93420ED07B6869
:10BDC0001B681B4A934209D07B681B68194A93423F
:10BDD00004D07B681B68184A934211D17B681B68AA
:10BDE0009B6803F00703FB60FB68062B10D07B68A1
:10BDF0001B681A687B681B6842F001021A6007E042
:10BE00007B681B681A687B681B6842F001021A6035
:10BE1000002318461437BD465DF8047B704700BF09
:10BE2000000001400004004000080040000C0040F9
:10BE300000040140004001400018004080B582B07D
:10BE400000AF78607B681B681B6903F00203022B5C
:10BE500022D17B681B68DB6803F00203022B1BD135
:10BE60007B681B686FF002021A617B6801221A77F7
:10BE70007B681B689B6903F00303002B03D0786881
:10BE800000F0B2F905E0786800F0A4F9786800F0F5
:10BE9000B5F97B6800221A777B681B681B6903F081
:10BEA0000403042B22D17B681B68DB6803F00403C6
:10BEB000042B1BD17B681B686FF004021A617B683E
:10BEC00002221A777B681B689B6903F44073002B7E
:10BED00003D0786800F088F905E0786800F07AF916
:10BEE000786800F08BF97B6800221A777B681B6802
:10BEF0001B6903F00803082B22D17B681B68DB68F1
:10BF000003F00803082B1BD17B681B686FF0080245
:10BF10001A617B6804221A777B681B68DB6903F06F
:10BF20000303002B03D0786800F05EF905E0786821
:10BF300000F050F9786800F061F97B6800221A7708
:10BF40007B681B681B6903F01003102B22D17B68F0
:10BF50001B68DB6803F01003102B1BD17B681B6888
:10BF60006FF010021A617B6808221A777B681B68E1
:10BF7000DB6903F44073002B03D0786800F034F9D8
:10BF800005E0786800F026F9786800F037F97B68FA
:10BF900000221A777B681B681B6903F00103012BE1
:10BFA0000ED17B681B68DB6803F00103012B07D10E
:10BFB0007B681B686FF001021A61786803F0A0FCCF
:10BFC0007B681B681B6903F08003802B0ED17B68A4
:10BFD0001B68DB6803F08003802B07D17B681B683C
:10BFE0006FF080021A61786800F0DCFA7B681B68E9
:10BFF0001B6903F04003402B0ED17B681B68DB6894
:10C0000003F04003402B07D17B681B686FF04002B0
:10C010001A61786800F0FCF87B681B681B6903F004
:10C020002003202B0ED17B681B68DB6803F0200304
:10C03000202B07D17B681B686FF020021A6178689B
:10C0400000F0A6FA00BF0837BD4680BD80B584B0B9
:10C0500000AF786039607B6893F83C30012B01D1E8
:10C060000223B3E07B68012283F83C207B68022234
:10C0700083F83D207B681B689B68FB60FB6823F0AE
:10C080007703FB60FB6823F47F43FB607B681B68DE
:10C09000FA689A603B681B68B3F5005F3ED0B3F561
:10C0A000005F00F28780B3F5805F00F08580B3F514
:10C0B000805F7FD8702B1AD0702B7BD8602B50D02C
:10C0C000602B77D8502B3CD0502B73D8402B58D0B6
:10C0D000402B6FD8302B64D0302B6BD8202B60D006
:10C0E000202B67D8002B5CD0102B5AD062E07B68E5
:10C0F00018683B6899683B685A683B68DB6800F0E1
:10C10000ABF97B681B689B68FB60FB6843F07703B7
:10C11000FB607B681B68FA689A604EE07B68186871
:10C120003B6899683B685A683B68DB6800F094F9A3
:10C130007B681B689A687B681B6842F480429A603F
:10C140003BE07B6818683B6859683B68DB681A46C7
:10C1500000F008F97B681B685021184600F061F96F
:10C160002BE07B6818683B6859683B68DB681A46B7
:10C1700000F027F97B681B686021184600F051F930
:10C180001BE07B6818683B6859683B68DB681A46A7
:10C1900000F0E8F87B681B684021184600F041F980
:10C1A0000BE07B681A683B681B681946104600F074
:10C1B00038F902E000BF00E000BF7B68012283F88D
:10C1C0003D207B68002283F83C200023184610376E
:10C1D000BD4680BD80B483B000AF786000BF0C372F
:10C1E000BD465DF8047B704780B483B000AF7860D3
:10C1F00000BF0C37BD465DF8047B704780B483B048
:10C2000000AF786000BF0C37BD465DF8047B704717
:10C2100080B483B000AF786000BF0C37BD465DF8D6
:10C22000047B704780B485B000AF786039607B686C
:10C230001B68FB607B68404A934213D07B68B3F174
:10C24000804F0FD07B683D4A93420BD07B683C4ABD
:10C25000934207D07B683B4A934203D07B683A4ABB
:10C26000934208D1FB6823F07003FB603B685B6876
:10C27000FA681343FB607B682F4A93422BD07B689C
:10C28000B3F1804F27D07B682C4A934223D07B6840
:10C290002B4A93421FD07B682A4A93421BD07B686B
:10C2A000294A934217D07B68284A934213D07B686F
:10C2B000274A93420FD07B68264A93420BD07B6873
:10C2C000254A934207D07B68244A934203D07B6877
:10C2D000234A934208D1FB6823F44073FB603B6818
:10C2E000DB68FA681343FB60FB6823F080023B685D
:10C2F0005B691343FB607B68FA681A603B689A6865
:10C300007B68DA623B681A687B689A627B680A4AD3
:10C31000934203D07B680C4A934203D13B681A696D
:10C320007B681A637B6801225A6100BF1437BD46DF
:10C330005DF8047B704700BF00000140000400402E
:10C3400000080040000C0040000401400040014093
:10C35000004401400048014000180040001C00401B
:10C360000020004080B487B000AFF860B9607A6008
:10C37000FB681B6A7B61FB681B6A23F00102FB6898
:10C380001A62FB689B693B613B6923F0F0033B61E8
:10C390007B681B013A6913433B617B6923F00A0305
:10C3A0007B617A69BB6813437B61FB683A699A6178
:10C3B000FB687A691A6200BF1C37BD465DF8047BD2
:10C3C000704780B487B000AFF860B9607A60FB68EE
:10C3D0001B6A23F01002FB681A62FB689B697B6191
:10C3E000FB681B6A3B617B6923F470437B617B685C
:10C3F0001B037A6913437B613B6923F0A0033B6114
:10C40000BB681B013A6913433B61FB687A699A6117
:10C41000FB683A691A6200BF1C37BD465DF8047BB1
:10C42000704780B485B000AF786039607B689B68E6
:10C43000FB60FB6823F07003FB603A68FB68134302
:10C4400043F00703FB607B68FA689A6000BF14370B
:10C45000BD465DF8047B704780B487B000AFF860DC
:10C46000B9607A603B60FB689B687B617B6923F401
:10C470007F437B613B681A027B681A43BB681343A6
:10C480007A6913437B61FB687A699A6000BF1C3745
:10C49000BD465DF8047B704780B485B000AF78601E
:10C4A00039607B6893F83C30012B01D102235AE0BC
:10C4B0007B68012283F83C207B68022283F83D20C0
:10C4C0007B681B685B68FB607B681B689B68BB6064
:10C4D000FB6823F07003FB603B681B68FA6813433A
:10C4E000FB607B681B68FA685A607B681B68214A9E
:10C4F000934222D07B681B68B3F1804F1DD07B68CC
:10C500001B681D4A934218D07B681B681B4A9342E4
:10C5100013D07B681B681A4A93420ED07B681B6855
:10C52000184A934209D07B681B68174A934204D08B
:10C530007B681B68154A93420CD1BB6823F08003CB
:10C54000BB603B685B68BA681343BB607B681B6871
:10C55000BA689A607B68012283F83D207B680022DC
:10C5600083F83C20002318461437BD465DF8047B51
:10C57000704700BF00000140000400400008004078
:10C58000000C004000040140004001400018004041
:10C5900080B483B000AF786000BF0C37BD465DF853
:10C5A000047B704780B483B000AF786000BF0C3765
:10C5B000BD465DF8047B704780B582B000AF7860FF
:10C5C0007B68002B01D101233FE07B6893F83D306D
:10C5D000DBB2002B06D17B68002283F83C20786810
:10C5E00000F066F87B68242283F83D207B681B6896
:10C5F000DA687B681B6822F40052DA60786800F021
:10C60000C7FB7B681B681A697B681B6822F4904231
:10C610001A617B681B685A697B681B6822F02A02D2
:10C620005A617B681B68DA687B681B6842F40052B9
:10C63000DA607B6800221A647B68202283F83D2040
:10C640007B68202283F83E20002318460837BD4629
:10C6500080BD80B582B000AF78607B68002B01D1CF
:10C66000012321E07B68242283F83D207B681B683E
:10C67000DA687B681B6822F40052DA60786800F0A0
:10C6800021F87B6800221A647B68002283F83D2031
:10C690007B68002283F83E207B6800221A637B6857
:10C6A000002283F83C20002318460837BD4680BD91
:10C6B00080B483B000AF786000BF0C37BD465DF832
:10C6C000047B704780B483B000AF786000BF0C3744
:10C6D000BD465DF8047B704780B485B000AFF8605C
:10C6E000B9601346FB80FB6893F83D30DBB2202B2A
:10C6F00030D1BB68002B02D0FB88002B01D1012375
:10C7000029E0FB6893F83C30012B01D1022322E0A1
:10C71000FB68012283F83C20FB68BA681A62FB6858
:10C72000FA889A84FB68FA88DA84FB6800221A6423
:10C73000FB68212283F83D20FB68002283F83C201F
:10C74000FB681B68DA68FB681B6842F08002DA60ED
:10C75000002300E0022318461437BD465DF8047B31
:10C760007047000080B58AB000AF78607B681B68B6
:10C770001B687B627B681B68DB683B627B681B68AD
:10C780005B69FB610023BB6100237B617B6A03F073
:10C790000F03BB61BB69002B0DD17B6A03F0200343
:10C7A000002B08D03B6A03F02003002B03D07868ED
:10C7B00000F057FA7CE1BB69002B00F0B180FB6907
:10C7C00003F00103002B05D13B6A03F49073002BA7
:10C7D00000F0A6807B6A03F00103002B0AD03B6ABD
:10C7E00003F48073002B05D07B681B6C43F00102BF
:10C7F0007B681A647B6A03F00403002B0AD0FB6990
:10C8000003F00103002B05D07B681B6C43F0020290
:10C810007B681A647B6A03F00203002B0AD0FB6971
:10C8200003F00103002B05D07B681B6C43F004026E
:10C830007B681A647B6A03F00803002B0FD03B6A05
:10C8400003F02003002B04D1FB6903F00103002B4C
:10C8500005D07B681B6C43F008027B681A647B6818
:10C860001B6C002B00F01F817B6A03F02003002B60
:10C8700007D03B6A03F02003002B02D0786800F059
:10C88000F0F97B681B685B6903F04003402B0CBF29
:10C8900001230023DBB27B617B681B6C03F0080380
:10C8A000002B02D17B69002B31D0786800F030F981
:10C8B0007B681B685B6903F04003402B23D17B68D6
:10C8C0001B685A697B681B6822F040025A617B68CA
:10C8D0009B6B002B13D07B689B6B774A1A657B6838
:10C8E0009B6B1846FEF7A6F80346002B16D07B6814
:10C8F0009B6B1B6D7A68926B104698470EE07868C8
:10C9000000F0F0F80AE0786800F0ECF806E07868EB
:10C9100000F0E8F87B6800221A64C4E000BFC2E0BF
:10C920007B681B6B012B40F0A2807B6A03F0100335
:10C93000002B00F09C803B6A03F01003002B00F0FA
:10C9400096800023FB607B681B681B68FB607B682C
:10C950001B685B68FB60FB687B681B685B6903F0B6
:10C960004003402B4FD17B689B6B1B685B683B820D
:10C970003B8A002B00F099807B689B8D3A8A9A4213
:10C9800080F093807B683A8ADA857B689B6BDB69F1
:10C99000B3F5807F2BD07B681B68DA687B681B68E7
:10C9A00022F48072DA607B681B685A697B681B68B6
:10C9B00022F001025A617B681B685A697B681B6818
:10C9C00022F040025A617B68202283F83E207B6877
:10C9D00000221A637B681B68DA687B681B6822F098
:10C9E0001002DA607B689B6B1846FDF7B3FF7B682B
:10C9F0009A8D7B68DB8D9BB2D31A9BB219467868FF
:10CA000000F07AF851E07B689A8D7B68DB8D9BB2F1
:10CA1000D31A7B827B68DB8D9BB2002B47D07B8A4D
:10CA2000002B44D07B681B68DA687B681B6822F4A3
:10CA30009072DA607B681B685A697B681B6822F019
:10CA400001025A617B68202283F83E207B68002225
:10CA50001A637B681B68DA687B681B6822F0100227
:10CA6000DA607B8A1946786800F046F81FE07B6A36
:10CA700003F08003002B08D03B6A03F08003002BF7
:10CA800003D0786800F085F812E07B6A03F0400379
:10CA9000002B0DD03B6A03F04003002B08D07868D0
:10CAA00000F0C7F804E000BF02E000BF00E000BFF4
:10CAB0002837BD4680BD00BF6BCB000880B483B073
:10CAC00000AF786000BF0C37BD465DF8047B70474F
:10CAD00080B483B000AF786000BF0C37BD465DF80E
:10CAE000047B704780B483B000AF786000BF0C3720
:10CAF000BD465DF8047B704780B483B000AF7860BA
:10CB00000B467B8000BF0C37BD465DF8047B704749
:10CB100080B483B000AF78607B681B68DA687B689C
:10CB20001B6822F49072DA607B681B685A697B6824
:10CB30001B6822F001025A617B681B6B012B07D135
:10CB40007B681B68DA687B681B6822F01002DA6079
:10CB50007B68202283F83E207B6800221A6300BF96
:10CB60000C37BD465DF8047B704780B584B000AFDC
:10CB700078607B689B6BFB60FB680022DA85FB6852
:10CB80000022DA84F868FFF7ADFF00BF1037BD461A
:10CB900080BD80B485B000AF78607B6893F83D308D
:10CBA000DBB2212B3ED17B689B68B3F5805F14D14B
:10CBB0007B681B69002B10D17B681B6AFB60FB68DC
:10CBC0001B881A467B681B68C2F308025A607B68A0
:10CBD0001B6A9A1C7B681A6208E07B681B6A591CF6
:10CBE0007A6811621A787B681B685A607B68DB8CF4
:10CBF0009BB2013B9BB27A681946D184002B0FD1BE
:10CC00007B681B68DA687B681B6822F08002DA6048
:10CC10007B681B68DA687B681B6842F04002DA6058
:10CC2000002300E0022318461437BD465DF8047B5C
:10CC3000704780B582B000AF78607B681B68DA68A7
:10CC40007B681B6822F04002DA607B68202283F850
:10CC50003D207868FFF732FF002318460837BD46AD
:10CC600080BD80B584B000AF78607B6893F83E30BB
:10CC7000DBB2222B40F087807B689B68B3F5805F36
:10CC800017D17B681B69002B13D10023FB607B68E5
:10CC90009B6ABB607B681B685B689BB2C3F308033D
:10CCA0009AB2BB681A807B689B6A9A1C7B689A62FE
:10CCB00026E07B689B6AFB600023BB607B689B6807
:10CCC000B3F5805F07D07B689B68002B0AD17B6837
:10CCD0001B69002B06D17B681B685B68DAB2FB68B6
:10CCE0001A7008E07B681B685B68DBB203F07F03A7
:10CCF000DAB2FB681A707B689B6A5A1C7B689A627E
:10CD00007B68DB8D9BB2013B9BB27A681946D1856B
:10CD1000002B36D17B681B68DA687B681B6822F0C1
:10CD20002002DA607B681B68DA687B681B6822F483
:10CD30008072DA607B681B685A697B681B6822F026
:10CD400001025A617B68202283F83E207B681B6BBE
:10CD5000012B0ED17B681B68DA687B681B6822F0A8
:10CD60001002DA607B689B8D19467868FFF7C4FE75
:10CD700002E07868FFF7ACFE7B6800221A630023AC
:10CD800002E0002300E0022318461037BD4680BDB4
:10CD90002DE9F04F9FB000AFF866FB6E1B681B6972
:10CDA00023F44050FB6ED968FB6E1A6840EA010319
:10CDB0001361FB6E9A68FB6E1B691A43FB6E5B691D
:10CDC0001A43FB6EDB6913433B67FB6E1B68DB6832
:10CDD00023F4164121F00C01FB6E1A683B6F0B43E4
:10CDE000D360FB6E1B685B6923F44070FB6E99692E
:10CDF000FB6E1A6840EA01035361FB6E1A68C54B6B
:10CE00009A4204D0FB6E1A68C34B9A4203D1FEF7D4
:10CE100037FF786702E0FEF71FFF7867FB6EDB697C
:10CE2000B3F5004F40F0B6807B6F1C464FF0000515
:10CE300022462B46911839645B417B64D7E9102365
:10CE4000121945EB03034FF000004FF00001D90029
:10CE500041EA5271D00002460B46111939666B4106
:10CE60007B66FB6E5B681A464FF000039118B9634E
:10CE70005B41FB63D7E90E23D7E91801FBF7A4FE5A
:10CE800002460B46A54BA3FB02235B091E017B6FE9
:10CE90001C464FF0000522462B46911839635B4132
:10CEA0007B63D7E90C23121945EB03034FF0000015
:10CEB0004FF00001D90041EA5271D00002460B4602
:10CEC0001119B9656B41FB65FB6E5B681A464FF043
:10CED00000039118B9625B41FB62D7E90A23D7E9E5
:10CEE0001601FBF771FE02460B468C4BA3FB0213A7
:10CEF0005B09642101FB03F3D31ADB003233874A59
:10CF0000A2FB03235B095B0003F4F8731E447B6FF1
:10CF100018464FF0000102460B4694183C625B41F4
:10CF20007B62D7E90823121841EB03034FF000049A
:10CF30004FF00005DD0045EA5275D40022462B462D
:10CF400014183C654B417B65FB6E5B681A464FF0DD
:10CF500000039118B9615B41FB61D7E90623D7E96A
:10CF60001401FBF731FE02460B466C4BA3FB021388
:10CF70005B09642101FB03F3D31ADB003233674AF8
:10CF8000A2FB03235B0903F00702FB6E1B6832441C
:10CF90009A60B9E07B6F1C464FF0000522462B4695
:10CFA000911839615B417B61D7E90423121945EB84
:10CFB00003034FF000004FF00001D90041EA527125
:10CFC000D00002460B4612EB040843EB0509FB6E4A
:10CFD0005B6818464FF000014FF000024FF000036D
:10CFE0008B0043EA9073820040464946FBF7ECFD14
:10CFF00002460B46494BA3FB02235B091E017B6FD4
:10D0000018464FF0000102460B469418BC605B4185
:10D01000FB60D7E90223121841EB03034FF0000431
:10D020004FF00005DD0045EA5275D40022462B463C
:10D030001418BC644B41FB64FB6E5B6818464FF0F0
:10D0400000014FF000024FF000038B0043EA9073A1
:10D050008200D7E91201FBF7B7FD02460B462F4BC2
:10D06000A3FB02135B09642101FB03F3D31A1B0129
:10D0700032332A4AA2FB03235B0903F0F0031E4468
:10D080007B6F18464FF0000102460B4694183C6037
:10D090005B417B60D7E90023121841EB03034FF09B
:10D0A00000044FF00005DD0045EA5275D400224629
:10D0B0002B4612EB000A43EB010BFB6E5B68184634
:10D0C0004FF000014FF000024FF000038B0043EAE5
:10D0D0009073820050465946FBF776FD02460B4698
:10D0E0000E4BA3FB02135B09642101FB03F3D31A6C
:10D0F0001B013233094AA2FB03235B0903F00F0231
:10D10000FB6E1B6832449A6000BF7C37BD46BDE8A9
:10D11000F08F00BF00100140001401401F85EB514B
:10D1200080B483B000AF0346FB7197F90730002B42
:10D130000BDBFB7903F01F02074997F907305B0906
:10D14000012000FA02F241F8232000BF0C37BD464F
:10D150005DF8047B704700BF00E100E080B582B05D
:10D1600000AF78601D4B1E4A1A601C4B00225A60AB
:10D170001A4B00229A60194B0022DA60174B4FF4C9
:10D1800080621A61154B4FF480525A61134B4FF471
:10D1900080429A61114B4FF48072DA610F4B4FF469
:10D1A00000321A620D4B00225A620C4B01229A6225
:10D1B0000A4B0022DA62094B00221A630748FDF786
:10D1C000C3FA7B68054A9A63044A7B6893633820F4
:10D1D000FFF7A6FF00BF0837BD4680BDF80300205B
:10D1E0001064024080B500AF034B9B6B1846FDF7FF
:10D1F00043FC00BF80BD00BF0406002080B483B0A4
:10D2000000AF786000BF0C37BD465DF8047B704707
:10D2100080B400AFFEE780B400AFFEE780B400AF9B
:10D22000FEE780B400AFFEE780B400AFFEE780B455
:10D2300000AF00BFBD465DF8047B704780B400AF0F
:10D2400000BFBD465DF8047B704780B400AF00BFEF
:10D25000BD465DF8047B704780B500AF044A137A81
:10D2600043F002031372FBF7B7FE00BF80BD00BF9F
:10D270008804002080B500AF0248FBF734FF00BFF0
:10D2800080BD00BF0406002080B500AF0248FFF754
:10D2900069FA00BF80BD00BF6C08002080B500AFF8
:10D2A0000248FEF7CBFD00BF80BD00BFDC070020B9
:10D2B00080B500AF0248FEF7C1FD00BF80BD00BFD2
:10D2C000DC07002080B500AF0648FEF7B7FD4FF041
:10D2D00080431B684FF0804223F00103136000BFBE
:10D2E00080BD00BF2408002080B500AF044A137A37
:10D2F00043F0040313720348FEF7A0FD00BF80BD96
:10D30000880400204C07002080B500AF044A137A3F
:10D3100043F0080313720348FEF790FD00BF80BD81
:10D3200088040020BC06002080B500AF044A137AB0
:10D3300043F0100313720348FEF780FD00BF80BD69
:10D34000880400200407002080B500AF184A137A33
:10D3500043F020031372164B9B8901339AB2144B8E
:10D360009A81134B9B89092B07D9114B00229A8173
:10D370000F4A137A43F0400313720D4B5B7E03F0A8
:10D380000403DBB2002B0ED0094BDB8901339AB2C8
:10D39000074BDA81064BDB890A2B04D9044A537EFA
:10D3A00043F0080353760348FEF748FD00BF80BDF5
:10D3B000880400209407002080B500AF0248FCF7E5
:10D3C000A3FE00BF80BD00BF7C06002080B500AF7B
:10D3D0000A4B0B4A00210B48FCF784FD084B1B68E5
:10D3E00040F2C172934203D00449054800F0DEFBCD
:10D3F0000448FCF789FE00BF80BD00BFFC0500208B
:10D40000E00500207C06002080B500AF074B084AED
:10D4100001210848FCF766FD0449054800F04AFA76
:10D420000448FCF771FE00BF80BD00BFFC05002072
:10D43000E00500207C06002080B500AF0248FCF724
:10D4400063FE00BF80BD00BF7C06002080B500AF3A
:10D45000044B1B68063B012B02D800F005F800BF07
:10D4600000BF80BD8804002080B588B000AF07F100
:10D470000C0300221A605A609A60DA60404B1B6805
:10D48000062B01D1052300E00723BB770023BB60F7
:10D490003C4B5B6C3B4A43F480735364394B5B6C8D
:10D4A00003F48073BB60BB6800237B60354B1B6B50
:10D4B000344A43F480031363324B1B6B03F4800341
:10D4C0007B607B68304B314A1A602F4B4FF48032BF
:10D4D0005A602D4B00229A602B4B01221A612A4B75
:10D4E00001221A76284B002283F82020264B284A56
:10D4F0009A62254B0022DA60BB7F234AD361224B1C
:10D50000012283F83020204B00225A611E48FBF78D
:10D51000A7FD0346002B01D002F0C7F90023FB77DB
:10D5200014E0FB7FFB60FB7F01333B6100237B61E9
:10D5300007F10C0319461448FCF744F80346002B86
:10D5400001D002F0B2F9FB7F0133FB77FA7FBB7F9A
:10D550009A42E6D30A4B1B68062B01D1052300E053
:10D5600007231A460B490848FBF7FEFE0346002B2B
:10D5700001D002F09AF900BF2037BD4680BD00BF40
:10D5800088040020003802400406002000200140EA
:10D590000100000FA405002080B500AF00F002F8E4
:10D5A00000BF80BD80B582B000AF00237B607B4BA5
:10D5B0001B6C7A4A43F000731364784B1B6C03F0C6
:10D5C00000737B607B68764B764A1A60744B03224B
:10D5D0005A60734B4FF420221A61714B4FF4803222
:10D5E0005A616F4B4FF00072DA606D4B01225A7630
:10D5F0006B4B00229A766A4B00221A76684B002207
:10D60000DA76674B00221A77654B00229A60644BEA
:10D6100001225A776248FCF77FFA0346002B01D0BB
:10D6200002F043F95E4B1B681A685D4B1B6822F0E1
:10D6300001021A605C4B00225A615B4B01229A6125
:10D64000594B0022DA61584B4FF620021A60564BB4
:10D6500000225A60544B00229A60534B0022DA6039
:10D66000514B00221A61504B01221A624E4B0E227E
:10D670005A624D494A48FCF755FB4C4B1B68033B2B
:10D68000042B00F2D78001A252F823F0A1D60008A3
:10D69000FBD600084BD70008B1D70008B1D7000867
:10D6A000414B01225A61404B01229A613E4B0022BC
:10D6B000DA613E4B1B799B0106335B011A463A4BFC
:10D6C0001A603A4B1B799B010B335B011A46364BB0
:10D6D0005A60354B00229A60334B0022DA60324B9D
:10D6E00001221A61304B01221A622F4B0E225A621C
:10D6F0002D492B48FCF716FB9CE02B4B01225A616D
:10D70000294B01229A61284B0022DA61264B002224
:10D710001A60264B1B799B0101335B011A46224B91
:10D720005A60214B00229A601F4B0022DA601E4B88
:10D7300001221A611C4B01221A621B4B0E225A62F3
:10D7400019491748FCF7EEFA74E0174B01225A61A9
:10D75000154B01229A61144B0022DA61134B1B799D
:10D760009B0102335B011A460F4B1A600E4B0022DD
:10D770005A600D4B00229A600B4B0022DA600A4B74
:10D7800001221A61084B01221A62074B0E225A62CB
:10D7900005490348FCF7C6FA4CE000BF00380240D8
:10D7A0007C060020006400404C0600208804002015
:10D7B0003E4B01225A613D4B00229A613B4B0022B5
:10D7C000DA613A4BC0221A60384B4FF4B0725A609B
:10D7D000364B4FF4FC629A60344B4FF4FC62DA60D3
:10D7E000324B01221A61314B01221A622F4B0E2259
:10D7F0005A622E492E48FCF795FA2C4B02225A61A8
:10D800002A4B00229A61294B0022DA61274B202201
:10D810001A60264B40225A60244B01221A61234B86
:10D8200001221A62214B0E225A6220492048FCF73D
:10D8300079FA00BF1D4B03225A611C4B00229A61EA
:10D840001A4B0022DA61194B4FF480621A60174BB1
:10D850004FF484625A60154B4FF4FC629A60134B8C
:10D860004FF4FC62DA60114B00221A610F4B012267
:10D870001A620E4B0E225A620C490D48FCF752FAFE
:10D880000A4B04225A61094B4FF488621A60074B15
:10D890000022DA6005490648FCF744FA044B1B688D
:10D8A00013225A6100BF0837BD4680BD4C060020D8
:10D8B0007C06002080B582B000AF786039609F4B55
:10D8C0005B7E03F00403DBB2002B40F060819B4BD6
:10D8D0001B68033B042B00F2618101A252F823F084
:10D8E00007D90008F5DA000849DB0008F5D8000878
:10D8F000F5D80008914B00225A71904A137E43F0EC
:10D90000010313764AE17B681B6803F03F03062B93
:10D9100003D00B2B00F0A080D7E03B681B789BB2B4
:10D9200003F00F039AB2854BA3F8F8203B681B78ED
:10D930001B09DBB29AB2814BA3F8FA203B68013392
:10D940001B789BB203F00F039AB27C4BA3F8FC2028
:10D950003B6801331B781B09DBB29AB2774BA3F803
:10D96000FE203B6802331B789BB203F00F039AB290
:10D97000724BA3F800213B6802331B781B09DBB212
:10D980009AB26E4BA3F802213B6803331B789BB21B
:10D9900003F00F039AB2694BA3F804213B680333E9
:10D9A0001B781B09DBB29AB2644BA3F806213B68D3
:10D9B00004331B789BB203F00F039AB25F4BA3F8BA
:10D9C00008213B6804331B781B09DBB29AB25B4B1E
:10D9D000A3F80A213B6805331B789BB203F00F03C1
:10D9E0009AB2564BA3F80C213B6805331B781B09F0
:10D9F000DBB29AB2514BA3F80E213B6806331B7879
:10DA00009BB203F00F039AB24C4BA3F810213B6872
:10DA100006331B781B09DBB29AB2484BA3F81221DC
:10DA20003B6807331B789BB203F00F039AB2434B5A
:10DA3000A3F814213B6807331B781B09DBB29AB2A9
:10DA40003E4BA3F816213D4B00225A713B4A137EF0
:10DA500043F00103137638E03B681A78374B83F8BC
:10DA600038213B685A78354B83F83921334B93F88A
:10DA7000383103F00103DBB2002B05D00022402136
:10DA80002F48FDF717FC04E0012240212C48FDF748
:10DA900011FC2A4B93F8383103F00203DBB2002B60
:10DAA00005D0002280212648FDF704FC04E0012275
:10DAB00080212348FDF7FEFB204B00225A711F4AAC
:10DAC000137E43F00103137600BF7B681B6803F0ED
:10DAD0003F03062B5DD13B681B789AB23B6801334C
